:100000000C945C000C9479000C9479000C947900A9
:100010000C9479000C9479000C9479000C9479007C
:100020000C9479000C9479000C9479000C9479006C
:100030000C9479000C9479000C9479000C9479005C
:100040000C94A3010C9479000C9479000C94790021
:100050000C9479000C9479000C9479000C9479003C
:100060000C9479000C947900000000080002010053
:100070000003040700000000000000000000000072
:10008000250028002B0000000000240027002A0083
:10009000040404040404040402020202020203032E
:1000A0000303030301020408102040800102040836
:1000B000102001020408102011241FBECFEFD8E049
:1000C000DEBFCDBF11E0A0E0B1E0EAE8F5E002C09C
:1000D00005900D92AA32B107D9F721E0AAE2B1E06A
:1000E00001C01D92A633B207E1F70E94ED010C9406
:1000F000C3020C94000090E0FC01EC55FF4F2491EA
:10010000FC01E057FF4F8491882399F090E0880F1D
:10011000991FFC01EA57FF4FA591B491FC01E458E7
:10012000FF4F859194918FB7F894EC91E22BEC936B
:100130008FBF089590E0FC01E859FF4F3491FC0116
:10014000EC55FF4F2491FC01E057FF4FE491EE2363
:1001500009F43BC0332339F1333091F038F43130B6
:10016000A9F0323001F584B58F7D12C0373091F09F
:100170003830A1F03430B9F4809180008F7D03C015
:10018000809180008F77809380000DC084B58F7739
:1001900084BD09C08091B0008F7703C08091B0000A
:1001A0008F7D8093B000F0E0EE0FFF1FE458FF4F0B
:1001B000A591B4918FB7F894EC91611103C020958B
:1001C0002E2301C02E2B2C938FBF08951F93CF9306
:1001D000DF93182FEB010E947B00209711F460E061
:1001E00004C0CF3FD10539F461E0812FDF91CF9179
:1001F0001F910C949A00E12FF0E0E859FF4FE49131
:10020000E330F9F048F4E130B9F0E230A1F584B51B
:10021000806284BDC8BD34C0E730E9F0E83019F130
:10022000E43049F580918000806280938000D09313
:100230008B00C0938A0024C084B5806884BDC7BD8C
:100240001FC080918000806880938000D0938900D7
:10025000C093880015C08091B00080688093B00082
:10026000C093B3000DC08091B00080628093B00055
:10027000C093B40005C0C038D1050CF0B5CFAFCFE6
:10028000DF91CF911F9108953FB7F894809132018B
:1002900090913301A0913401B091350126B5A89B0E
:1002A00005C02F3F19F00196A11DB11D3FBFBA2F08
:1002B000A92F982F8827820F911DA11DB11DBC0168
:1002C000CD0142E0660F771F881F991F4A95D1F72D
:1002D00008958F929F92AF92BF92CF92DF92EF924A
:1002E000FF926B017C010E9444014B015C01C1142F
:1002F000D104E104F104F1F00E944401DC01CB01DE
:1003000088199909AA09BB09883E9340A105B1053E
:1003100070F321E0C21AD108E108F10888EE880ED6
:1003200083E0981EA11CB11CC114D104E104F104A6
:1003300019F7DDCFFF90EF90DF90CF90BF90AF9097
:100340009F908F9008951F920F920FB60F921124D5
:100350002F933F938F939F93AF93BF9380912E01E1
:1003600090912F01A0913001B091310130912D0178
:1003700023E0230F2D3720F40196A11DB11D05C0E8
:1003800026E8230F0296A11DB11D20932D01809315
:100390002E0190932F01A0933001B09331018091F1
:1003A000320190913301A0913401B0913501019651
:1003B000A11DB11D8093320190933301A0933401AC
:1003C000B0933501BF91AF919F918F913F912F9144
:1003D0000F900FBE0F901F901895789484B582608F
:1003E00084BD84B5816084BD85B5826085BD85B5D9
:1003F000816085BD80916E00816080936E00109257
:1004000081008091810082608093810080918100D1
:100410008160809381008091800081608093800062
:100420008091B10084608093B1008091B0008160C0
:100430008093B00080917A00846080937A008091EC
:100440007A00826080937A0080917A008160809344
:100450007A0080917A00806880937A001092C100BF
:1004600089E00E947B008AE00E947B008BE00E9472
:100470007B0000E010E05AE0D52ED0922A01D09205
:100480002B01D0922C01E0E0F0E0E12CF12CC7012F
:1004900095958795DC01A85EBE4FCC91E0FE03C028
:1004A000CF70D0E006C0D0E034E0D595C7953A953E
:1004B000E1F7DE01AA0FBB1FAC0FBD1FA050BF4F5D
:1004C0001296AC901297B12CCF01880F991FE80FAC
:1004D000F91FE050FF4F8281A81AB10811968C9045
:1004E0001197912C8181881A91086C90712C8081D0
:1004F000681A710831F48114910419F4A114B1043B
:1005000091F185EF482E512C60912A0170E089E02D
:100510000E94E60030902B01632D70E08AE00E947B
:10052000E600C0902C016C2D70E08BE00E94E6008C
:1005300064E170E080E090E00E94690180912A010E
:10054000860D80932A01380C30922B01CA0CC09280
:100550002C0181E0481A5108B9F668EC70E080E09F
:1005600090E00E9469018FEFE81AF80A84E2E81629
:10057000F10411F0FE018BCF0115110509F47DCFB7
:0A0580000E9400007ACFF894FFCF2C
:10058A00000000000100000101000001010000015B
:10059A00010001010101000101237654032156746F
:0A05AA00136416027524351725703E
:00000001FF
