:100000000C9462000C948A000C948A000C948A0070
:100010000C948A000C948A000C948A000C948A0038
:100020000C948A000C948A000C948A000C948A0028
:100030000C948A000C948A000C948A000C948A0018
:100040000C94B0020C948A000C9420030C94FA02D5
:100050000C948A000C948A000C948A000C948A00F8
:100060000C948A000C948A000000000024002700F1
:100070002A000000000023002600290000000000E4
:10008000250028002B0004040404040404040202D4
:100090000202020203030303030301020408102007
:1000A0004080010204081020010204081020000012
:1000B0000008000201000003040700000000000027
:1000C0000000440411241FBECFEFD8E0DEBFCDBF37
:1000D00011E0A0E0B1E0E0E4F9E002C005900D928B
:1000E000A431B107D9F721E0A4E1B1E001C01D922C
:1000F000AC3BB207E1F710E0C2E6D0E004C02197C4
:10010000FE010E949304C136D107C9F70E94520331
:100110000C949E040C940000833081F028F481300C
:1001200099F08230A1F008958730A9F08830B9F0B5
:100130008430D1F4809180008F7D03C08091800055
:100140008F7780938000089584B58F7702C084B53F
:100150008F7D84BD08958091B0008F7703C080911A
:10016000B0008F7D8093B00008951F93CF93DF93ED
:10017000EBEBF0E09491E7EAF0E0D491E3E9F0E012
:10018000C491CC23D9F0182F992319F0892F0E94FC
:100190008C00EC2FF0E0EE0FFF1FE458FF4FA5910D
:1001A000B4918FB7F894111105C09C91ED2FE09593
:1001B000E92302C0EC91ED2BEC938FBFDF91CF913F
:1001C0001F910895CF93DF93282F30E0F901E25576
:1001D000FF4F8491F901E656FF4FD491F901EA5798
:1001E000FF4FC491CC2391F081110E948C00EC2F21
:1001F000F0E0EE0FFF1FEE58FF4FA591B491EC9188
:10020000ED2381E090E021F480E002C080E090E006
:10021000DF91CF9108953FB7F89480911B019091A1
:100220001C01A0911D01B0911E0126B5A89B05C01F
:100230002F3F19F00196A11DB11D3FBFBA2FA92F65
:10024000982F8827820F911DA11DB11DBC01CD01E2
:1002500042E0660F771F881F991F4A95D1F70895CE
:10026000CF92DF92EF92FF920F931F93CF93DF9382
:100270006C017A018B01C0E0D0E0CE15DF0589F07A
:10028000D8016D918D01D601ED91FC910190F08125
:10029000E02DC6010995892B11F47E0102C021963B
:1002A000ECCFC701DF91CF911F910F91FF90EF909D
:1002B000DF90CF900895FC01918D828D981761F0A9
:1002C000828DDF01A80FB11D5D968C91928D9F5F8D
:1002D0009F73928F90E008958FEF9FEF0895FC0138
:1002E000918D828D981731F0828DE80FF11D858DEB
:1002F00090E008958FEF9FEF0895FC01918D228D7E
:10030000892F90E0805C9F4F821B91098F73992702
:1003100008958FE191E00E947D0121E0892B09F48D
:1003200020E0822F0895FC01848DDF01A80FB11D0C
:10033000A35ABF4F2C91848D90E001968F7399271B
:10034000848FA689B7892C93A089B1898C91806408
:100350008C93938D848D981306C00288F389E02DC9
:1003600080818F7D80830895EF92FF920F931F937A
:10037000CF93DF93EC0181E0888F9B8D8C8D981358
:1003800005C0E889F989808185FD24C0F62E0B8D92
:1003900010E00F5F1F4F0F731127E02E8C8DE812B6
:1003A0000CC00FB607FCFACFE889F989808185FF78
:1003B000F5CFCE010E949301F1CF8B8DFE01E80FA6
:1003C000F11DE35AFF4FF0820B8FEA89FB89808190
:1003D000806207C0EE89FF896083E889F98980819E
:1003E0008064808381E090E0DF91CF911F910F9135
:1003F000FF90EF900895CF93DF93EC01888D8823D1
:10040000C9F0EA89FB89808185FD05C0A889B98981
:100410008C9186FD0FC00FB607FCF5CF808185FF5C
:10042000F2CFA889B9898C9185FFEDCFCE010E94CA
:100430009301E7CFDF91CF91089580E090E0892B81
:1004400029F00E94890181110C94000008958F9277
:100450009F92AF92BF920F931F93CF93DF93CDB72D
:10046000DEB7A1970FB6F894DEBF0FBECDBF19A2BD
:10047000423008F44AE08E010F5D1F4F842E912C0C
:10048000A12CB12CA50194010E947104E62FB901A1
:10049000CA0101501109EA3014F4E05D01C0E95CC1
:1004A000D801EC93232B242B252B61F70115110583
:1004B00071F0F80101900020E9F73197AF01401B7E
:1004C000510BB8018FE191E00E94300102C080E041
:1004D00090E0A1960FB6F894DEBF0FBECDBFDF91BE
:1004E000CF911F910F91BF90AF909F908F900895E3
:1004F000CF92DF92EF92FF92CF93DF936C01990F2F
:10050000EE08FF08F7FE1FC0E0911F01F0912001E7
:100510000190F081E02D6DE28FE191E00995EC0111
:1005200066277727CB016C197D098E099F094AE060
:100530000E9427028C0F9D1FDF91CF91FF90EF90BB
:10054000DF90CF9008954AE0C701B601DF91CF91C7
:10055000FF90EF90DF90CF900C9427020E949904B7
:100560001F920F920FB60F9211242F933F938F93E8
:100570009F93AF93BF938091170190911801A09121
:100580001901B0911A013091160123E0230F2D3784
:1005900020F40196A11DB11D05C026E8230F029687
:1005A000A11DB11D2093160180931701909318018E
:1005B000A0931901B0931A0180911B0190911C0125
:1005C000A0911D01B0911E010196A11DB11D809346
:1005D0001B0190931C01A0931D01B0931E01BF91BC
:1005E000AF919F918F913F912F910F900FBE0F90E0
:1005F0001F9018951F920F920FB60F9211242F93F0
:100600003F934F935F936F937F938F939F93AF939A
:10061000BF93EF93FF938FE191E00E949301FF91CD
:10062000EF91BF91AF919F918F917F916F915F916A
:100630004F913F912F910F900FBE0F901F901895E3
:100640001F920F920FB60F9211242F938F939F93A7
:10065000EF93FF93E0912F01F09130018081E091C1
:100660003501F091360182FD12C0908180913801F0
:100670008F5F8F7320913901821751F0E09138011B
:10068000F0E0E15EFE4F958F8093380101C08081DC
:10069000FF91EF919F918F912F910F900FBE0F902F
:1006A0001F901895789484B5826084BD84B581606C
:1006B00084BD85B5826085BD85B5816085BD80912D
:1006C0006E00816080936E001092810080918100A5
:1006D000826080938100809181008160809381009D
:1006E000809180008160809380008091B10084605F
:1006F0008093B1008091B00081608093B0008091C0
:100700007A00846080937A0080917A00826080937E
:100710007A0080917A00816080937A0080917A00DB
:10072000806880937A001092C100E2EAF0E02491A0
:10073000EEE8F0E084918823C1F090E0880F991FE3
:10074000FC01E859FF4FC591D491FC01E458FF4FDB
:10075000A591B4919FB7F8948881E22FE0958E23FC
:1007600088838C91E823EC939FBFE0912F01F09157
:10077000300182E08083E0912B01F0912C01108206
:10078000E0912D01F0912E018FEC808310923701C2
:10079000E0913301F091340186E08083E0913101F2
:1007A000F0913201808180618083E0913101F0918C
:1007B0003201808188608083E0913101F0913201C3
:1007C000808180688083E0913101F09132018081E5
:1007D0008F7D8083C1E088E00E94E200892B61F177
:1007E0000E940B014B015C0185E0C82ED12CE12C4D
:1007F000F12C0E940B01DC01CB0188199909AA098F
:10080000BB09883E9340A105B10558F021E0C21A0A
:10081000D108E108F10888EE880E83E0981EA11C3B
:10082000B11CC114D104E104F10419F788E00E945D
:10083000E20021E0892B09F420E020931501222316
:1008400029F0809114018C278093140188E00E9484
:10085000E2000E9478028091140190E00E947802E8
:1008600042E050E060E171E08FE191E00E943001F0
:1008700080911401882311F081E001C080E00E9482
:10088000B5000E941D02A7CFEFE1F1E013821282B2
:1008900088EE93E0A0E0B0E084839583A683B783DD
:1008A00084E091E09183808385EC90E09587848754
:1008B00084EC90E09787868780EC90E0918B808B2A
:1008C00081EC90E0938B828B82EC90E0958B848B13
:1008D00086EC90E0978B868B118E128E138E148E81
:1008E0000895A1E21A2EAA1BBB1BFD010DC0AA1F71
:1008F000BB1FEE1FFF1FA217B307E407F50720F089
:10090000A21BB30BE40BF50B661F771F881F991F03
:100910001A9469F760957095809590959B01AC014C
:10092000BD01CF010895EE0FFF1F0590F491E02D5A
:10093000099481E090E0F8940C949E04F894FFCF21
:1009400000000000B40130017D015B016F01FB017B
:040950000D0A00008C
:00000001FF
