:100000000C9462000C948A000C948A000C948A0070
:100010000C948A000C948A000C948A000C948A0038
:100020000C948A000C948A000C948A000C948A0028
:100030000C948A000C948A000C948A000C948A0018
:100040000C9469030C948A000C94D9030C94B303A8
:100050000C948A000C948A000C948A000C948A00F8
:100060000C948A000C948A000000000023002600F3
:10007000290000000000240027002A0000000000E2
:10008000250028002B0004040404040404040202D4
:100090000202020203030303030301020408102007
:1000A0004080010204081020010204081020000012
:1000B0000008000201000003040700000000000027
:1000C0000000730511241FBECFEFD8E0DEBFCDBF07
:1000D00011E0A0E0B1E0E6E1F0E102C005900D9290
:1000E000A833B107D9F721E0A8E3B1E001C01D9220
:1000F000AE3DB207E1F710E0C2E6D0E004C02197C0
:10010000FE010E94C205C136D107C9F70E94500402
:100110000C9409080C94000090E0FC01E255FF4F9C
:100120003491FC01E656FF4F2491FC01EA57FF4F42
:10013000E491EE2309F43BC0332339F1333091F0DD
:1001400038F43130A9F0323001F584B58F7D12C01A
:10015000373091F03830A1F03430B9F4809180001C
:100160008F7D03C0809180008F77809380000DC0C9
:1001700084B58F7784BD09C08091B0008F7703C0AC
:100180008091B0008F7D8093B000F0E0EE0FFF1FF4
:10019000E458FF4FA591B4918FB7F894EC91611199
:1001A00003C020952E2301C02E2B2C938FBF0895C2
:1001B000CF93DF9390E0FC01E656FF4F2491FC01C2
:1001C000EA57FF4F8491882361F190E0880F991FCF
:1001D000FC01EE58FF4FC591D491FC01E458FF4F4C
:1001E000A591B491611109C09FB7F89488812095B9
:1001F00082238883EC912E230BC0623061F49FB779
:10020000F8943881822F809583238883EC912E2B5C
:100210002C939FBF06C08FB7F894E8812E2B2883BC
:100220008FBFDF91CF9108953FB7F89480913D0142
:1002300090913E01A0913F01B091400126B5A89B4D
:1002400005C02F3F19F00196A11DB11D3FBFBA2F68
:10025000A92F982F8827820F911DA11DB11DBC01C8
:10026000CD0142E0660F771F881F991F4A95D1F78D
:100270000895CF92DF92EF92FF920F931F93CF9347
:10028000DF936C017A018B01C0E0D0E0CE15DF0571
:1002900089F0D8016D918D01D601ED91FC9101900D
:1002A000F081E02DC6010995892B11F47E0102C071
:1002B0002196ECCFC701DF91CF911F910F91FF9055
:1002C000EF90DF90CF900895FC01918D828D98176B
:1002D00061F0828DDF01A80FB11D5D968C91928D2A
:1002E0009F5F9F73928F90E008958FEF9FEF089527
:1002F000FC01918D828D981731F0828DE80FF11DF0
:10030000858D90E008958FEF9FEF0895FC01918D0A
:10031000228D892F90E0805C9F4F821B91098F7303
:100320009927089581E491E00E94860121E0892BBC
:1003300009F420E0822F0895FC01848DDF01A80FCD
:10034000B11DA35ABF4F2C91848D90E001968F73FD
:100350009927848FA689B7892C93A089B1898C911C
:1003600080648C93938D848D981306C00288F389E2
:10037000E02D80818F7D80830895EF92FF920F930F
:100380001F93CF93DF93EC0181E0888F9B8D8C8D41
:10039000981305C0E889F989808185FD24C0F62E6F
:1003A0000B8D10E00F5F1F4F0F731127E02E8C8D08
:1003B000E8120CC00FB607FCFACFE889F9898081F2
:1003C00085FFF5CFCE010E949C01F1CF8B8DFE0100
:1003D000E80FF11DE35AFF4FF0820B8FEA89FB898A
:1003E0008081806207C0EE89FF896083E889F9898E
:1003F00080818064808381E090E0DF91CF911F91C4
:100400000F91FF90EF900895CF93DF93EC01888DCB
:100410008823C9F0EA89FB89808185FD05C0A88908
:10042000B9898C9186FD0FC00FB607FCF5CF80818E
:1004300085FFF2CFA889B9898C9185FFEDCFCE01D8
:100440000E949C01E7CFDF91CF91089580E090E07A
:10045000892B29F00E94920181110C9400000895CB
:10046000009769F0FC0101900020E9F73197AF0196
:10047000481B590BBC0181E491E00C94390180E0E8
:1004800090E008958F929F92AF92BF920F931F9327
:10049000CF93DF93CDB7DEB7A1970FB6F894DEBF49
:1004A0000FBECDBF19A2423008F44AE08E010F5DA5
:1004B0001F4F842E912CA12CB12CA50194010E94D8
:1004C000A005E62FB901CA0101501109EA3014F460
:1004D000E05D01C0E95CD801EC93232B242B252B94
:1004E00061F7C8010E943002A1960FB6F894DEBFF2
:1004F0000FBECDBFDF91CF911F910F91BF90AF90F5
:100500009F908F9008954F925F926F927F928F92FB
:100510009F92AF92BF92CF92DF92EF92FF926B01C8
:100520007C01B42E9B01AC010E94FF07882319F0C7
:1005300080E191E027C026013701E89477F82FEF9A
:100540003FEF4FE75FE7C301B2010E94FF07811150
:100550000DC02FEF3FEF4FE75FE7C301B2010E94ED
:10056000350618161CF484E191E00CC02FEF3FEF24
:100570004FE75FE4C701B6010E948D07181684F4A7
:1005800088E191E0FF90EF90DF90CF90BF90AF9027
:100590009F908F907F906F905F904F900C9430025F
:1005A0002FEF3FEF4FE75FECC701B6010E94350622
:1005B00087FDE6CF20E030E0A901C701B6010E9427
:1005C000350687FF11C0E0914101F0914201019091
:1005D000F081E02D6DE281E491E009954C01F7FA9C
:1005E000F094F7F8F09402C0812C912CA12C60E0DB
:1005F00070E080E09FE3AB1441F020E030E040E2A7
:1006000051E40E943A06A394F6CF9B01AC01C701C6
:10061000B6010E94C9052B013C010E94AC066B018A
:100620007C010E94DB069B01AC01C301B2010E9468
:10063000C8052B013C014AE0C701B6010E944202F5
:100640007C01E80CF91CBB2069F0E0914101F091BC
:1006500042010190F081E02D6EE281E491E0099584
:10066000E80EF91EDB2CDD2021F120E030E040E235
:1006700051E4C301B2010E9492072B013C010E9488
:10068000AC064B01A12CB12C4AE0C501B4010E947B
:100690004202E80EF91EC501B4010E94DB069B016F
:1006A000AC01C301B2010E94C8052B013C01DA94E0
:1006B000DACFC701FF90EF90DF90CF90BF90AF905F
:1006C0009F908F907F906F905F904F9008950E94C1
:1006D00004081F920F920FB60F9211242F933F938D
:1006E0008F939F93AF93BF938091390190913A017B
:1006F000A0913B01B0913C013091380123E0230FE0
:100700002D3720F40196A11DB11D05C026E8230F49
:100710000296A11DB11D2093380180933901909359
:100720003A01A0933B01B0933C0180913D0190912F
:100730003E01A0913F01B09140010196A11DB11D64
:1007400080933D0190933E01A0933F01B0934001FF
:10075000BF91AF919F918F913F912F910F900FBEBD
:100760000F901F9018951F920F920FB60F921124A1
:100770002F933F934F935F936F937F938F939F93A9
:10078000AF93BF93EF93FF9381E491E00E949C01AC
:10079000FF91EF91BF91AF919F918F917F916F9159
:1007A0005F914F913F912F910F900FBE0F901F902F
:1007B00018951F920F920FB60F9211242F938F93BB
:1007C0009F93EF93FF93E0915101F091520180814B
:1007D000E0915701F091580182FD12C09081809103
:1007E0005A018F5F8F7320915B01821751F0E09166
:1007F0005A01F0E0EF5BFE4F958F80935A0101C0E4
:100800008081FF91EF919F918F912F910F900FBE5B
:100810000F901F901895CF92DF92EF92FF920F9357
:100820001F93E82FF92F05C0015011092109310943
:1008300061F1908196239417B9F305C00150110915
:100840002109310911F1908196239413F7CFC12C1E
:10085000D12CE12CF12C0AC08FEFC81AD80AE80A73
:10086000F80A0C151D052E053F0579F080818623B9
:10087000841791F36C2D7D2D8E2D9F2D1F910F913F
:10088000FF90EF90DF90CF90089560E070E080E0FF
:1008900090E01F910F91FF90EF90DF90CF9008951F
:1008A000789484B5826084BD84B5816084BD85B54B
:1008B000826085BD85B5816085BD80916E00816057
:1008C00080936E00109281008091810082608093FD
:1008D00081008091810081608093810080918000FF
:1008E0008160809380008091B10084608093B1002A
:1008F0008091B00081608093B00080917A00846024
:1009000080937A0080917A00826080937A0080914F
:100910007A00816080937A0080917A008068809369
:100920007A001092C100E0915101F091520182E0F1
:100930008083E0914D01F0914E011082E0914F01D2
:10094000F09150018FEC808310925901E091550194
:10095000F091560186E08083E0915301F0915401BB
:10096000808180618083E0915301F0915401808106
:1009700088608083E0915301F09154018081806808
:100980008083E0915301F091540180818F7D8083B9
:1009900061E082E00E94D80060E083E00E94D8001D
:1009A00061E089E00E94D80061E08AE00E94D800FE
:1009B00061E08BE00E94D80061E08CE00E94D800EA
:1009C000C3E2D0E02DE9E22E20E0F22E39E8C32E7A
:1009D00030E0D32E61E082E00E948C00CE010197CE
:1009E000F1F760E082E00E948C00F7016491F6016B
:1009F000249130E0220F331F28593F4FF901859190
:100A0000949100E412E42FE030E0462F0E940B04A2
:100A1000611571058105910549F0DC01CB01019655
:100A2000A11DB11DBC01CD019F7003C060E070E04D
:100A3000CB010E94DB064B015C018CE191E00E943E
:100A4000300242E0C501B4010E94830286E291E0D7
:100A50000E94300220E030E04AEA53E4C501B401CC
:100A60000E94920720E030E44CE156E40E943A06EE
:100A700020E030E040E05FE30E94920742E00E9405
:100A8000830281E391E00E94300285E391E00E94BD
:100A900030020E9414012B013C0184EF882E99241E
:100AA0009394A12CB12C0E941401DC01CB01841978
:100AB0009509A609B709883E9340A105B10558F0EC
:100AC000F1E08F1A9108A108B10828EE420E23E048
:100AD000521E611C711C81149104A104B10419F708
:100AE0000E94260277CFE1E4F1E01382128288EEC1
:100AF00093E0A0E0B0E084839583A683B78384E08D
:100B000091E09183808385EC90E09587848784ECE5
:100B100090E09787868780EC90E0918B808B81ECCA
:100B200090E0938B828B82EC90E0958B848B86ECAB
:100B300090E0978B868B118E128E138E148E0895F3
:100B4000A1E21A2EAA1BBB1BFD010DC0AA1FBB1FD1
:100B5000EE1FFF1FA217B307E407F50720F0A21B43
:100B6000B30BE40BF50B661F771F881F991F1A94B0
:100B700069F760957095809590959B01AC01BD01DA
:100B8000CF010895EE0FFF1F0590F491E02D099419
:100B90005058BB27AA270E94E0050C9453070E94D7
:100BA000450738F00E944C0720F039F49F3F19F4B4
:100BB00026F40C9442070EF4E095E7FB0C943C07F6
:100BC000E92F0E94640758F3BA1762077307840776
:100BD000950720F079F4A6F50C9486070EF4E095BD
:100BE0000B2EBA2FA02D0B01B90190010C01CA01E7
:100BF000A0011124FF27591B99F0593F50F4503E92
:100C000068F11A16F040A22F232F342F4427585F83
:100C1000F3CF469537952795A795F0405395C9F79B
:100C20007EF41F16BA0B620B730B840BBAF0915053
:100C3000A1F0FF0FBB1F661F771F881FC2F70EC0F2
:100C4000BA0F621F731F841F48F4879577956795C5
:100C5000B795F7959E3F08F0B0CF9395880F08F0B1
:100C60009927EE0F9795879508950E94180708F425
:100C700081E008950E944E060C9453070E944C0791
:100C800058F00E94450740F029F45F3F29F00C948A
:100C90003C0751110C9487070C9442070E9464078B
:100CA00068F39923B1F3552391F3951B550BBB279B
:100CB000AA2762177307840738F09F5F5F4F220FE0
:100CC000331F441FAA1FA9F335D00E2E3AF0E0E8D7
:100CD00032D091505040E695001CCAF72BD0FE2F21
:100CE00029D0660F771F881FBB1F261737074807B5
:100CF000AB07B0E809F0BB0B802DBF01FF2793586D
:100D00005F4F3AF09E3F510578F00C943C070C94ED
:100D100087075F3FE4F3983ED4F386957795679510
:100D2000B795F7959F5FC9F7880F911D96958795A1
:100D300097F90895E1E0660F771F881FBB1F6217C0
:100D400073078407BA0720F0621B730B840BBA0B7E
:100D5000EE1F88F7E09508950E946C0788F09F5772
:100D600098F0B92F9927B751B0F0E1F0660F771FCF
:100D7000881F991F1AF0BA95C9F714C0B13091F0C5
:100D80000E948607B1E008950C948607672F782F9C
:100D90008827B85F39F0B93FCCF38695779567958A
:100DA000B395D9F73EF490958095709561957F4FF6
:100DB0008F4F9F4F0895E89409C097FB3EF490959C
:100DC0008095709561957F4F8F4F9F4F9923A9F024
:100DD000F92F96E9BB279395F695879577956795B3
:100DE000B795F111F8CFFAF4BB0F11F460FF1BC0F7
:100DF0006F5F7F4F8F4F9F4F16C0882311F096E98A
:100E000011C0772321F09EE8872F762F05C0662337
:100E100071F096E8862F70E060E02AF09A95660FF0
:100E2000771F881FDAF7880F9695879597F90895A9
:100E3000990F0008550FAA0BE0E8FEEF16161706EB
:100E4000E807F907C0F012161306E407F50798F053
:100E5000621B730B840B950B39F40A2661F0232B6C
:100E6000242B252B21F408950A2609F4A140A695E8
:100E70008FEF811D811D089597F99F6780E870E0CD
:100E800060E008959FEF80EC089500240A94161600
:100E9000170618060906089500240A941216130668
:100EA000140605060895092E0394000C11F48823F6
:100EB00052F0BB0F40F4BF2B11F460FF04C06F5F12
:100EC0007F4F8F4F9F4F089557FD9058440F551FE8
:100ED00059F05F3F71F04795880F97FB991F61F0BC
:100EE0009F3F79F087950895121613061406551F33
:100EF000F2CF4695F1DF08C0161617061806991F9F
:100F0000F1CF86957105610508940895E894BB2793
:100F100066277727CB0197F908950E94180708F4F0
:100F20008FEF08950E94A5070C9453070E94450770
:100F300038F00E944C0720F0952311F00C943C07E8
:100F40000C94420711240C9487070E94640770F3E5
:100F5000959FC1F3950F50E0551F629FF001729F5E
:100F6000BB27F00DB11D639FAA27F00DB11DAA1F6D
:100F7000649F6627B00DA11D661F829F2227B00DBA
:100F8000A11D621F739FB00DA11D621F839FA00D45
:100F9000611D221F749F3327A00D611D231F849F95
:100FA000600D211D822F762F6A2F11249F575040EC
:100FB0009AF0F1F088234AF0EE0FFF1FBB1F661F67
:100FC000771F881F91505040A9F79E3F510580F030
:100FD0000C943C070C9487075F3FE4F3983ED4F3EE
:100FE000869577956795B795F795E7959F5FC1F7D4
:100FF000FE2B880F911D9695879597F908950E946D
:101000001807880B990B089581E090E0F8940C94F0
:061010000908F894FFCF6F
:1010160000000000BD013901860164017801040267
:101026006E616E00696E66006F7666006475726149
:1010360074696F6E3A000A64697374616E63653A27
:0810460000636D0A000D0A00B1
:00000001FF
