:100000000C9463000C948B000C948B000C948B006C
:100010000C948B000C948B000C948B000C94AF030D
:100020000C948B000C948B000C948B000C948B0024
:100030000C948B000C948B000C948B000C948B0014
:100040000C9465030C948B000C9457040C943104AD
:100050000C948B000C948B000C948B000C948B00F4
:100060000C948B000C948B000000000023002600F1
:1000700029000200000000240027002A00000000E0
:1000800000250028002B00040404040404040402D6
:100090000202020202030303030303010204081025
:1000A00020408001020408102001020408102000F2
:1000B0000000080002010000030407000000000027
:1000C000000000001C0711241FBECFEFD8E0DEBFE8
:1000D000CDBF22E0AAE4B1E001C01D92A530B20775
:1000E000E1F711E0A0E0B1E0E8EEF3E102C0059035
:1000F0000D92AA34B107D9F710E0C3E6D0E004C0EE
:100100002197FE010E944907C236D107C9F70E9414
:10011000CE040C94F2090C940000E0916801F09177
:1001200069010190F081E02D682F88E691E0099443
:1001300090E0FC01E155FF4F3491FC01E556FF4F83
:100140002491FC01E957FF4FE491EE2309F43BC0F1
:10015000332339F1333091F038F43130A9F03230B3
:1001600001F584B58F7D12C0373091F03830A1F0A1
:100170003430B9F4809180008F7D03C0809180007D
:100180008F77809380000DC084B58F7784BD09C0C0
:100190008091B0008F7703C08091B0008F7D8093F5
:1001A000B000F0E0EE0FFF1FE358FF4FA591B491B0
:1001B0008FB7F894EC91611103C020952E2301C0F4
:1001C0002E2B2C938FBF0895CF93DF9390E0FC01EB
:1001D000E556FF4F2491FC01E957FF4F8491882396
:1001E00061F190E0880F991FFC01ED58FF4FC59118
:1001F000D491FC01E358FF4FA591B491611109C05E
:100200009FB7F8948881209582238883EC912E23D0
:100210000BC0623061F49FB7F8943881822F8095CB
:1002200083238883EC912E2B2C939FBF06C08FB71E
:10023000F894E8812E2B28838FBFDF91CF9108950A
:100240003FB7F8948091640190916501A091660197
:10025000B091670126B5A89B05C02F3F19F0019604
:10026000A11DB11D3FBFBA2FA92F982F8827820F3C
:10027000911DA11DB11DBC01CD0142E0660F771F8C
:10028000881F991F4A95D1F70895CF92DF92EF9278
:10029000FF920F931F93CF93DF936C017A018B0131
:1002A000C0E0D0E0CE15DF0589F0D8016D918D0159
:1002B000D601ED91FC910190F081E02DC6010995E8
:1002C000892B11F47E0102C02196ECCFC701DF918A
:1002D000CF911F910F91FF90EF90DF90CF900895F5
:1002E000FC01918D828D981761F0828DDF01A80F3E
:1002F000B11D5D968C91928D9F5F9F73928F90E060
:1003000008958FEF9FEF0895FC01918D828D9817CE
:1003100031F0828DE80FF11D858D90E008958FEF0B
:100320009FEF0895FC01918D228D892F90E0805CD4
:100330009F4F821B91098F739927089588E691E05A
:100340000E94920121E0892B09F420E0822F089578
:10035000FC01848DDF01A80FB11DA35ABF4F2C9162
:10036000848D90E001968F739927848FA689B78931
:100370002C93A089B1898C9180648C93938D848D0A
:10038000981306C00288F389E02D80818F7D8083D9
:100390000895EF92FF920F931F93CF93DF93EC0199
:1003A00081E0888F9B8D8C8D981305C0E889F98931
:1003B000808185FD24C0F62E0B8D10E00F5F1F4F4E
:1003C0000F731127E02E8C8DE8120CC00FB607FCBE
:1003D000FACFE889F989808185FFF5CFCE010E94A7
:1003E000A801F1CF8B8DFE01E80FF11DE35AFF4FFD
:1003F000F0820B8FEA89FB898081806207C0EE89D9
:10040000FF896083E889F98980818064808381E045
:1004100090E0DF91CF911F910F91FF90EF900895A1
:10042000CF93DF93EC01888D8823C9F0EA89FB899B
:10043000808185FD05C0A889B9898C9186FD0FC092
:100440000FB607FCF5CF808185FFF2CFA889B98967
:100450008C9185FFEDCFCE010E94A801E7CFDF91FF
:10046000CF91089580E090E0892B29F00E949E01B1
:1004700081110C9400000895009769F0FC0101902F
:100480000020E9F73197AF01481B590BBC0188E602
:1004900091E00C94450180E090E008958F929F9246
:1004A000AF92BF920F931F93CF93DF93CDB7DEB779
:1004B000A1970FB6F894DEBF0FBECDBF19A2423090
:1004C00008F44AE08E010F5D1F4F842E912CA12C61
:1004D000B12CA50194010E94C109E62FB901CA01FE
:1004E00001501109EA3014F4E05D01C0E95CD80163
:1004F000EC93232B242B252B61F7C8010E943C028F
:10050000A1960FB6F894DEBF0FBECDBFDF91CF919D
:100510001F910F91BF90AF909F908F9008954F9231
:100520005F926F927F928F929F92AF92BF92CF9283
:10053000DF92EF92FF926B017C01B42E9B01AC0124
:100540000E948D09882319F085E191E027C02601DA
:100550003701E89477F82FEF3FEF4FE75FE7C301EC
:10056000B2010E948D0981110DC02FEF3FEF4FE7BF
:100570005FE7C301B2010E94BC0718161CF489E1B1
:1005800091E00CC02FEF3FEF4FE75FE4C701B601EA
:100590000E941B09181684F48DE191E0FF90EF9002
:1005A000DF90CF90BF90AF909F908F907F906F9093
:1005B0005F904F900C943C022FEF3FEF4FE75FECC2
:1005C000C701B6010E94BC0787FDE6CF20E030E0FE
:1005D000A901C701B6010E94BC0787FF09C08DE2CF
:1005E0000E948D004C01F7FAF094F7F8F09402C0E5
:1005F000812C912CA12C60E070E080E09FE3AB1493
:1006000041F020E030E040E251E40E94C107A394B1
:10061000F6CF9B01AC01C701B6010E9450072B0128
:100620003C010E943A086B017C010E9469089B0111
:10063000AC01C301B2010E944F072B013C014AE00B
:10064000C701B6010E944E027C01E80CF91CBB20D8
:1006500029F08EE20E948D00E80EF91EDB2CDD20D1
:1006600021F120E030E040E251E4C301B2010E94F8
:1006700020092B013C010E943A084B01A12CB12C0E
:100680004AE0C501B4010E944E02E80EF91EC50100
:10069000B4010E9469089B01AC01C301B2010E9430
:1006A0004F072B013C01DA94DACFC701FF90EF909E
:1006B000DF90CF90BF90AF909F908F907F906F9082
:1006C0005F904F9008950E9492091F920F920FB66B
:1006D0000F9211242F933F938F939F93AF93BF93C8
:1006E0008091600190916101A0916201B0916301DC
:1006F00030915F0123E0230F2D3720F40196A11DD7
:10070000B11D05C026E8230F0296A11DB11D20933F
:100710005F018093600190936101A0936201B093A7
:1007200063018091640190916501A0916601B0918F
:1007300067010196A11DB11D80936401909365012D
:10074000A0936601B0936701BF91AF919F918F9184
:100750003F912F910F900FBE0F901F9018951F92F1
:100760000F920FB60F9211242F933F934F935F93E5
:100770006F937F938F939F93AF93BF93EF93FF9369
:100780008091530190915401A0915501B09156016F
:10079000892B8A2B8B2B59F180914A01E0914B01D7
:1007A000F0914C0190818927808380915301909131
:1007B0005401A0915501B0915601181619061A0658
:1007C0001B060CF03DC08091530190915401A09103
:1007D0005501B09156010197A109B10980935301C8
:1007E00090935401A0935501B093560129C0809174
:1007F0000001E2E7F0E0E4919FEF90930001E13027
:10080000B9F098F0E230C9F4909170009D7F909318
:10081000700091E09093B0009091B100987F946047
:100820009093B1001092B30008C010926E0005C002
:1008300090916F009D7F90936F0060E00E94980000
:10084000FF91EF91BF91AF919F918F917F916F91A8
:100850005F914F913F912F910F900FBE0F901F907E
:1008600018951F920F920FB60F9211242F933F935A
:100870004F935F936F937F938F939F93AF93BF93A8
:10088000EF93FF9388E691E00E94A801FF91EF911A
:10089000BF91AF919F918F917F916F915F914F9198
:1008A0003F912F910F900FBE0F901F9018951F92A0
:1008B0000F920FB60F9211242F938F939F93EF9364
:1008C000FF93E0917801F09179018081E0917E01C0
:1008D000F0917F0182FD12C09081809181018F5F34
:1008E0008F7320918201821751F0E0918101F0E035
:1008F000E859FE4F958F8093810101C08081FF915F
:10090000EF919F918F912F910F900FBE0F901F909D
:100910001895CF92DF92EF92FF920F931F93E82FDB
:10092000F92F05C0015011092109310961F19081A8
:1009300096239417B9F305C0015011092109310913
:1009400011F1908196239413F7CFC12CD12CE12C77
:10095000F12C0AC08FEFC81AD80AE80AF80A0C1559
:100960001D052E053F0579F080818623841791F3BC
:100970006C2D7D2D8E2D9F2D1F910F91FF90EF904F
:10098000DF90CF90089560E070E080E090E01F91EC
:100990000F91FF90EF90DF90CF900895CF93DF936A
:1009A00000D000D0CDB7DEB7789484B5826084BD26
:1009B00084B5816084BD85B5826085BD85B5816063
:1009C00085BD80916E00816080936E0010928100E1
:1009D000809181008260809381008091810081609C
:1009E000809381008091800081608093800080915D
:1009F000B10084608093B1008091B00081608093E9
:100A0000B00080917A00846080937A0080917A00AF
:100A1000826080937A0080917A00816080937A006E
:100A200080917A00806880937A001092C100E091F2
:100A30007801F091790182E08083E0917401F09176
:100A400075011082E0917601F09177018FEC80833F
:100A500010928001E0917C01F0917D0186E080831D
:100A6000E0917A01F0917B01808180618083E09147
:100A70007A01F0917B01808188608083E0917A0126
:100A8000F0917B01808180688083E0917A01F09110
:100A90007B0180818F7D808361E082E00E94E400A1
:100AA00060E083E00E94E400E4E18E2E912CA12C12
:100AB000B12CF3EA2F2EF0E03F2E61E082E00E949D
:100AC000980083E290E00197F1F760E082E00E94F5
:100AD0009800EEE9F0E06491EAE8F0E08491E82F14
:100AE000F0E0EE0FFF1FE859FF4F8591949100E46D
:100AF00012E42FE030E0462F0E9489046115710551
:100B00008105910549F0DC01CB010196A11DB11DC4
:100B1000BC01CD019F7003C060E070E0CB010E947A
:100B200069082B013C0120E030E04AEA53E40E94CE
:100B3000200920E030E44CE156E40E94C10720E0A7
:100B400030E040E05FE30E9420096B017C0181E21C
:100B500091E00E943C0242E0C301B2010E948F0278
:100B60008BE291E00E943C0242E0C701B6010E9484
:100B70008F0286E391E00E943C028AE391E00E94AA
:100B80003C0220E030E040E251E4C701B6010E949F
:100B9000BC0787FD10C020E030E048E452E4C70104
:100BA000B6010E941B0918164CF0C701B6010E943D
:100BB00033088B0105C00AE010E002C002E310E038
:100BC0008DE391E00E943C026801110FEE08FF08DE
:100BD000F7FE0EC08DE20E948D0088279927DC0168
:100BE0008C199D09AE09BF094AE0BC01CD0103C0C3
:100BF0004AE0C701B6010E944E0286E391E00E94DE
:100C00003C028AE391E00E943C02A70196012A502F
:100C1000310941095109ACEBB2E00E94B60928E262
:100C200030E040E050E00E94970980910001883058
:100C300021F4E2E7F0E0149175C08F3F09F0B2C0F3
:100C400088E080930001E2E7F0E014911F3F09F48F
:100C5000A9C0113009F1123009F441C0111162C06C
:100C600014BC15BC84B5826084BD85B5816085BD2A
:100C7000EFE8F0E08491E82FF0E0EE0FFF1FE3587B
:100C8000FF4F859194919093520180935101F1010E
:100C900084918093500148C010928000109281008E
:100CA00080918100886080938100809181008160C3
:100CB00080938100EFE8F0E08491E82FF0E0EE0F00
:100CC000FF1FE358FF4F8591949190934F018093BC
:100CD0004E01F101849180934D0111E025C01092E5
:100CE000B0001092B1008091B00082608093B0009B
:100CF0008091B10081608093B100EFE8F0E08491D1
:100D0000E82FF0E0EE0FFF1FE358FF4F859194911D
:100D100090934C0180934B01F101849180934A019F
:100D200012E002C017FD3EC061E088E029833A83EB
:100D30004B835C830E94E40029813A81112309F4EA
:100D40005FC0123009F470C01130D1F4809181007D
:100D5000887F8160809381008FE39CE99093890074
:100D6000809388008092570190925801A092590177
:100D7000B0925A0180916F00826080936F0012C020
:100D80008FE3123079F48093B300809253019092F4
:100D90005401A0925501B09256018091700082607A
:100DA000809370002901330F660877080E942001A4
:100DB0006B017C014114510461047104F1F00E9443
:100DC0002001DC01CB018C199D09AE09BF09883EC9
:100DD0009340A105B10570F3F1E04F1A5108610885
:100DE000710828EEC20E23E0D21EE11CF11C411452
:100DF00051046104710419F7DDCF0E9432025DCE07
:100E000085B5887F846085BDFBE9F7BD80925B0175
:100E100090925C01A0925D01B0925E0180916E00A3
:100E2000826080936E00BECF8091B100887F866023
:100E30008093B1008BE9A7CFE8E6F1E0138212823C
:100E400088EE93E0A0E0B0E084839583A683B78327
:100E500089E091E09183808385EC90E09587848799
:100E600084EC90E09787868780EC90E0918B808B74
:100E700081EC90E0938B828B82EC90E0958B848B5D
:100E800086EC90E0978B868B118E128E138E148ECB
:100E90000895EE0FFF1F0590F491E02D099450582E
:100EA000BB27AA270E9467070C94E1080E94D30879
:100EB00038F00E94DA0820F039F49F3F19F426F444
:100EC0000C94D0080EF4E095E7FB0C94CA08E92FC7
:100ED0000E94F20858F3BA17620773078407950750
:100EE00020F079F4A6F50C9414090EF4E0950B2E7D
:100EF000BA2FA02D0B01B90190010C01CA01A0016C
:100F00001124FF27591B99F0593F50F4503E68F1C6
:100F10001A16F040A22F232F342F4427585FF3CF07
:100F2000469537952795A795F0405395C9F77EF4D8
:100F30001F16BA0B620B730B840BBAF09150A1F021
:100F4000FF0FBB1F661F771F881FC2F70EC0BA0FA7
:100F5000621F731F841F48F4879577956795B7952F
:100F6000F7959E3F08F0B0CF9395880F08F099272A
:100F7000EE0F9795879508950E94A60808F481E0E2
:100F800008950E94D5070C94E1080E94DA0858F0F1
:100F90000E94D30840F029F45F3F29F00C94CA085E
:100FA00051110C9415090C94D0080E94F20868F3B2
:100FB0009923B1F3552391F3951B550BBB27AA2712
:100FC00062177307840738F09F5F5F4F220F331F4C
:100FD000441FAA1FA9F335D00E2E3AF0E0E832D014
:100FE00091505040E695001CCAF72BD0FE2F29D017
:100FF000660F771F881FBB1F261737074807AB07E9
:10100000B0E809F0BB0B802DBF01FF2793585F4F5D
:101010003AF09E3F510578F00C94CA080C941509DB
:101020005F3FE4F3983ED4F3869577956795B7953F
:10103000F7959F5FC9F7880F911D9695879597F94A
:101040000895E1E0660F771F881FBB1F62177307C3
:101050008407BA0720F0621B730B840BBA0BEE1FD8
:1010600088F7E09508950E943A086894B1110C94AD
:10107000150908950E94FA0888F09F5798F0B92F33
:101080009927B751B0F0E1F0660F771F881F991FBD
:101090001AF0BA95C9F714C0B13091F00E94140942
:1010A000B1E008950C941409672F782F8827B85F52
:1010B00039F0B93FCCF3869577956795B395D9F715
:1010C0003EF490958095709561957F4F8F4F9F4F1F
:1010D0000895E89409C097FB3EF49095809570952B
:1010E00061957F4F8F4F9F4F9923A9F0F92F96E974
:1010F000BB279395F695879577956795B795F111E9
:10110000F8CFFAF4BB0F11F460FF1BC06F5F7F4F85
:101110008F4F9F4F16C0882311F096E911C0772397
:1011200021F09EE8872F762F05C0662371F096E8A0
:10113000862F70E060E02AF09A95660F771F881F6F
:10114000DAF7880F9695879597F90895990F000813
:10115000550FAA0BE0E8FEEF16161706E807F90789
:10116000C0F012161306E407F50798F0621B730B24
:10117000840B950B39F40A2661F0232B242B252BA5
:1011800021F408950A2609F4A140A6958FEF811D48
:10119000811D089597F99F6780E870E060E00895E9
:1011A0009FEF80EC089500240A941616170618067F
:1011B0000906089500240A9412161306140605065B
:1011C0000895092E0394000C11F4882352F0BB0FEC
:1011D00040F4BF2B11F460FF04C06F5F7F4F8F4F4F
:1011E0009F4F089557FD9058440F551F59F05F3F8A
:1011F00071F04795880F97FB991F61F09F3F79F039
:1012000087950895121613061406551FF2CF4695BA
:10121000F1DF08C0161617061806991FF1CF86953C
:101220007105610508940895E894BB276627772720
:10123000CB0197F908950E94A60808F48FEF08954E
:101240000E9433090C94E1080E94D30838F00E94F0
:10125000DA0820F0952311F00C94CA080C94D008F9
:1012600011240C9415090E94F20870F3959FC1F3A4
:10127000950F50E0551F629FF001729FBB27F00D44
:10128000B11D639FAA27F00DB11DAA1F649F662799
:10129000B00DA11D661F829F2227B00DA11D621FE8
:1012A000739FB00DA11D621F839FA00D611D221FA2
:1012B000749F3327A00D611D231F849F600D211D86
:1012C000822F762F6A2F11249F5750409AF0F1F009
:1012D00088234AF0EE0FFF1FBB1F661F771F881F72
:1012E00091505040A9F79E3F510580F00C94CA08D8
:1012F0000C9415095F3FE4F3983ED4F386957795F7
:101300006795B795F795E7959F5FC1F7FE2B880F17
:10131000911D9695879597F908950E94A608880BC8
:10132000990B089581E090E0F8940C94F209052E51
:1013300097FB1EF400940E94AE0957FD07D00E944F
:10134000C10907FC03D04EF40C94AE0950954095AA
:10135000309521953F4F4F4F5F4F08959095809561
:10136000709561957F4F8F4F9F4F08950E94E309BD
:10137000A59F900DB49F900DA49F800D911D1124E9
:101380000895A1E21A2EAA1BBB1BFD010DC0AA1FC6
:10139000BB1FEE1FFF1FA217B307E407F50720F0DE
:1013A000A21BB30BE40BF50B661F771F881F991F59
:1013B0001A9469F760957095809590959B01AC01A2
:1013C000BD01CF010895A29FB001B39FC001A39FAB
:1013D000700D811D1124911DB29F700D811D11246E
:0813E000911D0895F894FFCF60
:1013E800FF0100000000000000C9014501920170E2
:1013F80001840110026E616E00696E66006F766688
:10140800006475726174696F6E3A000A6469737476
:10141800616E63653A00636D0A000D0A000A636431
:0A142800497374616E63653A0000B9
:00000001FF
