:100000000C9453000C947B000C947B000C947B00AC
:100010000C947B000C947B000C947B000C947B0074
:100020000C947B000C947B000C947B000C947B0064
:100030000C947B000C947B000C947B000C947B0054
:100040000C94C0020C947B000C9430030C940A03B3
:100050000C947B000C947B000C947B000C947B0034
:100060000C947B000C947B0000000000250028000D
:100070002B0000000000240027002A0004040404D0
:100080000404040402020202020203030303030342
:10009000010204081020408001020408102001021F
:1000A00004081020850411241FBECFEFD8E0DEBF66
:1000B000CDBF11E0A0E0B1E0E6E5FDE002C00590B3
:1000C0000D92A236B107D9F722E0A2E6B1E001C055
:1000D0001D92A830B207E1F710E0C3E5D0E004C0FC
:1000E0002197FE010E94D404C235D107C9F70E94AE
:1000F00062030C94A9060C940000E0916B01F0914E
:100100006C010190F081E02D682F8BE691E009945D
:100110003FB7F8948091670190916801A0916901BF
:10012000B0916A0126B5A89B05C02F3F19F0019632
:10013000A11DB11D3FBFBA2FA92F982F8827820F6D
:10014000911DA11DB11DBC01CD0142E0660F771FBD
:10015000881F991F4A95D1F70895CF92DF92EF92A9
:10016000FF920F931F93CF93DF936C017A018B0162
:10017000C0E0D0E0CE15DF0589F0D8016D918D018A
:10018000D601ED91FC910190F081E02DC601099519
:10019000892B11F47E0102C02196ECCFC701DF91BB
:1001A000CF911F910F91FF90EF90DF90CF90089526
:1001B000FC01918D828D981761F0828DDF01A80F6F
:1001C000B11D5D968C91928D9F5F9F73928F90E091
:1001D00008958FEF9FEF0895FC01918D828D981700
:1001E00031F0828DE80FF11D858D90E008958FEF3D
:1001F0009FEF0895FC01918D228D892F90E0805C06
:100200009F4F821B91098F73992708958BE691E088
:100210000E94FA0021E0892B09F420E0822F089542
:10022000FC01848DDF01A80FB11DA35ABF4F2C9193
:10023000848D90E001968F739927848FA689B78962
:100240002C93A089B1898C9180648C93938D848D3B
:10025000981306C00288F389E02D80818F7D80830A
:100260000895EF92FF920F931F93CF93DF93EC01CA
:1002700081E0888F9B8D8C8D981305C0E889F98962
:10028000808185FD24C0F62E0B8D10E00F5F1F4F7F
:100290000F731127E02E8C8DE8120CC00FB607FCEF
:1002A000FACFE889F989808185FFF5CFCE010E94D8
:1002B0001001F1CF8B8DFE01E80FF11DE35AFF4FC6
:1002C000F0820B8FEA89FB898081806207C0EE890A
:1002D000FF896083E889F98980818064808381E077
:1002E00090E0DF91CF911F910F91FF90EF900895D3
:1002F000CF93DF93EC01888D8823C9F0EA89FB89CD
:10030000808185FD05C0A889B9898C9186FD0FC0C3
:100310000FB607FCF5CF808185FFF2CFA889B98998
:100320008C9185FFEDCFCE010E941001E7CFDF91C8
:10033000CF91089580E090E0892B29F00E9406017A
:1003400081110C9400000895009769F0FC01019060
:100350000020E9F73197AF01481B590BBC018BE630
:1003600091E00C94AD0080E090E008958F929F9210
:10037000AF92BF920F931F93CF93DF93CDB7DEB7AA
:10038000A1970FB6F894DEBF0FBECDBF19A24230C1
:1003900008F44AE08E010F5D1F4F842E912CA12C92
:1003A000B12CA50194010E94B204E62FB901CA0143
:1003B00001501109EA3014F4E05D01C0E95CD80194
:1003C000EC93232B242B252B61F7C8010E94A40159
:1003D000A1960FB6F894DEBF0FBECDBFDF91CF91CF
:1003E0001F910F91BF90AF909F908F9008954F9263
:1003F0005F926F927F928F929F92AF92BF92CF92B5
:10040000DF92EF92FF926B017C019B01AC010E9495
:100410009F06882319F080E191E01AC04601570138
:10042000E894B7F82FEF3FEF4FE75FE7C501B4015E
:100430000E949F06811110C02FEF3FEF4FE75FE74B
:10044000C501B4010E944705181634F484E191E017
:100450000E94A4017C017FC02FEF3FEF4FE75FE4D4
:10046000C701B6010E942D0618161CF488E191E020
:10047000EFCF2FEF3FEF4FE75FECC701B6010E94D0
:10048000470587FDF3CF20E030E0A901C701B601A1
:100490000E94470587FF09C08DE20E947D005C0134
:1004A000F7FAF094F7F8F09402C0A12CB12C2AE0EE
:1004B00037ED43EA5BE3C701B6010E94DB042B0181
:1004C0003C010E944C056B017C010E947B059B0155
:1004D000AC01C301B2010E94DA042B013C014AE0E5
:1004E000C701B6010E94B6017C01EA0CFB1C8EE23A
:1004F0000E947D00E80EF91E20E030E040E251E469
:10050000C301B2010E9432062B013C010E944C053E
:100510004B01A12CB12C4AE0C501B4010E94B601E7
:10052000E80EF91EC501B4010E947B059B01AC01D8
:10053000C301B2010E94DA0420E030E040E251E45D
:100540000E9432060E944C0580E090E04AE00E9442
:10055000B601E80EF91E8CE191E00E94A4018E0D17
:100560009F1DFF90EF90DF90CF90BF90AF909F9036
:100570008F907F906F905F904F9008950E94A40697
:100580001F920F920FB60F9211242F933F938F93C8
:100590009F93AF93BF938091630190916401A09169
:1005A0006501B09166013091620123E0230F2D3780
:1005B00020F40196A11DB11D05C026E8230F029667
:1005C000A11DB11D2093620180936301909364018A
:1005D000A0936501B09366018091670190916801D5
:1005E000A0916901B0916A010196A11DB11D80938E
:1005F000670190936801A0936901B0936A01BF916C
:10060000AF919F918F913F912F910F900FBE0F90BF
:100610001F9018951F920F920FB60F9211242F93CF
:100620003F934F935F936F937F938F939F93AF937A
:10063000BF93EF93FF938BE691E00E941001FF912F
:10064000EF91BF91AF919F918F917F916F915F914A
:100650004F913F912F910F900FBE0F901F901895C3
:100660001F920F920FB60F9211242F938F939F9387
:10067000EF93FF93E0917B01F0917C018081E09109
:100680008101F091820182FD12C0908180918401EC
:100690008F5F8F7320918501821751F0E091840163
:1006A000F0E0E559FE4F958F8093840101C0808171
:1006B000FF91EF919F918F912F910F900FBE0F900F
:1006C0001F901895789484B5826084BD84B581604C
:1006D00084BD85B5826085BD85B5816085BD80910D
:1006E0006E00816080936E00109281008091810085
:1006F000826080938100809181008160809381007D
:10070000809180008160809380008091B10084603E
:100710008093B1008091B00081608093B00080919F
:100720007A00846080937A0080917A00826080935E
:100730007A0080917A00816080937A0080917A00BB
:10074000806880937A001092C100E0917B01F09163
:100750007C0182E08083E0917701F0917801108242
:10076000E0917901F0917A018FEC808310928301FE
:10077000E0917F01F091800186E08083E0917D012E
:10078000F0917E01808180618083E0917D01F09114
:100790007E01808188608083E0917D01F0917E01FF
:1007A000808180688083E0917D01F0917E0180816D
:1007B0008F7D8083EEE9F0E02491EAE8F0E0849117
:1007C0008823C1F090E0880F991FFC01EE58FF4F7D
:1007D000C591D491FC01E859FF4FA591B4919FB701
:1007E000F8948881E22FE0958E2388838C91E8230A
:1007F000EC939FBFC0E4C0937C0080917A0080643A
:1008000080937A0080917A0086FDFCCFE09078009A
:1008100080917900F12C8701182B4801012E000CE2
:10082000AA08BB08C501B4010E947D0520E030E0A4
:1008300040EA50E40E94320620E030E040E85AE30B
:100840000E9432062B013C0120E030E048EC52E4EB
:100850000E9432066B017C018FE191E00E94A401AD
:1008600017FF0CC08DE20E947D0066277727CB0121
:10087000681979098A099B094AE003C04AE0C50161
:10088000B4010E94B6018CE191E00E94A40185E3CD
:1008900091E00E94A401C301B2010E94F7018BE420
:1008A00091E00E94A401C701B6010E94F7018CE10A
:1008B00091E00E94A4010E9488004B015C0180ED40
:1008C000C82E87E0D82EE12CF12C0E948800DC0194
:1008D000CB0188199909AA09BB09883E9340A10553
:1008E000B10558F021E0C21AD108E108F10888EEFC
:1008F000880E83E0981EA11CB11CC114D104E10430
:10090000F10419F70E949A0176CFEBE6F1E0138229
:10091000128288EE93E0A0E0B0E084839583A68302
:10092000B78384E091E09183808385EC90E09587A4
:10093000848784EC90E09787868780EC90E0918BA9
:10094000808B81EC90E0938B828B82EC90E0958B96
:10095000848B86EC90E0978B868B118E128E138E93
:10096000148E0895A1E21A2EAA1BBB1BFD010DC017
:10097000AA1FBB1FEE1FFF1FA217B307E407F5074F
:1009800020F0A21BB30BE40BF50B661F771F881F2B
:10099000991F1A9469F760957095809590959B01C1
:1009A000AC01BD01CF010895EE0FFF1F0590F4913A
:1009B000E02D09945058BB27AA270E94F2040C94FA
:1009C000F3050E94E50538F00E94EC0520F039F4AB
:1009D0009F3F19F426F40C94E2050EF4E095E7FB32
:1009E0000C94DC05E92F0E94040658F3BA1762073D
:1009F00073078407950720F079F4A6F50C94260672
:100A00000EF4E0950B2EBA2FA02D0B01B901900129
:100A10000C01CA01A0011124FF27591B99F0593F6D
:100A200050F4503E68F11A16F040A22F232F342FB5
:100A30004427585FF3CF469537952795A795F04003
:100A40005395C9F77EF41F16BA0B620B730B840B18
:100A5000BAF09150A1F0FF0FBB1F661F771F881FD0
:100A6000C2F70EC0BA0F621F731F841F48F4879528
:100A700077956795B795F7959E3F08F0B0CF93951A
:100A8000880F08F09927EE0F9795879508950E9493
:100A9000B80508F481E008950E940C0688F09F577D
:100AA00098F0B92F9927B751B0F0E1F0660F771F92
:100AB000881F991F1AF0BA95C9F714C0B13091F088
:100AC0000E942606B1E008950C942606672F782F21
:100AD0008827B85F39F0B93FCCF38695779567954D
:100AE000B395D9F73EF490958095709561957F4FB9
:100AF0008F4F9F4F0895E89409C097FB3EF490955F
:100B00008095709561957F4F8F4F9F4F9923A9F0E6
:100B1000F92F96E9BB279395F69587957795679575
:100B2000B795F111F8CFFAF4BB0F11F460FF1BC0B9
:100B30006F5F7F4F8F4F9F4F16C0882311F096E94C
:100B400011C0772321F09EE8872F762F05C06623FA
:100B500071F096E8862F70E060E02AF09A95660FB3
:100B6000771F881FDAF7880F9695879597F908956C
:100B7000990F0008550FAA0BE0E8FEEF16161706AE
:100B8000E807F907C0F012161306E407F50798F016
:100B9000621B730B840B950B39F40A2661F0232B2F
:100BA000242B252B21F408950A2609F4A140A695AB
:100BB0008FEF811D811D089597F99F6780E870E090
:100BC00060E008959FEF80EC089500240A941616C3
:100BD000170618060906089500240A94121613062B
:100BE000140605060895092E0394000C11F48823B9
:100BF00052F0BB0F40F4BF2B11F460FF04C06F5FD5
:100C00007F4F8F4F9F4F089557FD9058440F551FAA
:100C100059F05F3F71F04795880F97FB991F61F07E
:100C20009F3F79F087950895121613061406551FF5
:100C3000F2CF4695F1DF08C0161617061806991F61
:100C4000F1CF86957105610508940895E894BB2756
:100C500066277727CB0197F908950E94B80508F415
:100C60008FEF08950E9445060C94F3050E94E50558
:100C700038F00E94EC0520F0952311F00C94DC056F
:100C80000C94E20511240C9427060E94040670F3CC
:100C9000959FC1F3950F50E0551F629FF001729F21
:100CA000BB27F00DB11D639FAA27F00DB11DAA1F30
:100CB000649F6627B00DA11D661F829F2227B00D7D
:100CC000A11D621F739FB00DA11D621F839FA00D08
:100CD000611D221F749F3327A00D611D231F849F58
:100CE000600D211D822F762F6A2F11249F575040AF
:100CF0009AF0F1F088234AF0EE0FFF1FBB1F661F2A
:100D0000771F881F91505040A9F79E3F510580F0F2
:100D10000C94DC050C9427065F3FE4F3983ED4F373
:100D2000869577956795B795F795E7959F5FC1F796
:100D3000FE2B880F911D9695879597F908950E942F
:100D4000B805880B990B089581E090E0F8940C9415
:060D5000A906F894FFCF94
:100D5600000000003101AD00FA00D800EC00780177
:100D66006E616E00696E66006F7666000D0A003170
:100D76002E73656E736F7220726561642076616C86
:100D860075653A2000322E73656E736F72206D2082
:100D9600766F6C74202020203A2000332E6465671D
:100DA60072656520632020202020202020203A2004
:020DB60000003B
:00000001FF
