:100000000C945D000C9485000C9485000C94850084
:100010000C9485000C9485000C9485000C9485004C
:100020000C9485000C9485000C9485000C9485003C
:100030000C9485000C9485000C9485000C9485002C
:100040000C94A3020C9485000C9413030C94ED0201
:100050000C9485000C9485000C9485000C9485000C
:100060000C9485000C9485000000000024002700FB
:100070002A0000000000250028002B0004040404CE
:100080000404040402020202020203030303030342
:10009000010204081020408001020408102001021F
:1000A00004081020000000080002010000030407FB
:1000B00000000000000000009C0411241FBECFEFD0
:1000C000D8E0DEBFCDBF21E0AEE2B1E001C01D92BD
:1000D000A43DB207E1F711E0A0E0B1E0EAE6FAE002
:1000E00002C005900D92AE32B107D9F710E0CDE510
:1000F000D0E004C02197FE010E94D804CC35D1077E
:10010000C9F70E9445030C9433050C940000EFEAF4
:10011000F0E02491EBE9F0E09491E7E8F0E0E4917D
:10012000EE2309F43BC0222339F1233091F038F457
:100130002130A9F0223001F524B52F7D12C02730DF
:1001400091F02830A1F02430B9F4209180002F7D67
:1001500003C0209180002F77209380000DC024B52C
:100160002F7724BD09C02091B0002F7703C02091C4
:10017000B0002F7D2093B000F0E0EE0FFF1FEE588F
:10018000FF4FA591B4912FB7F894EC91811103C062
:1001900090959E2301C09E2B9C932FBF0895CF93D3
:1001A000DF9390E0FC01E057FF4F2491FC01E458FD
:1001B000FF4F8491882361F190E0880F991FFC0123
:1001C000E859FF4FC591D491FC01EE58FF4FA5911E
:1001D000B491611109C09FB7F8948881209582235A
:1001E0008883EC912E230BC0623061F49FB7F894A2
:1001F0003881822F809583238883EC912E2B2C933A
:100200009FBF06C08FB7F894E8812E2B28838FBF3D
:10021000DF91CF9108953FB7F89480913301909189
:100220003401A0913501B091360126B5A89B05C0D7
:100230002F3F19F00196A11DB11D3FBFBA2FA92F65
:10024000982F8827820F911DA11DB11DBC01CD01E2
:1002500042E0660F771F881F991F4A95D1F70895CE
:10026000CF92DF92EF92FF920F931F93CF93DF9382
:100270006C017A018B01C0E0D0E0CE15DF0589F07A
:10028000D8016D918D01D601ED91FC910190F08125
:10029000E02DC6010995892B11F47E0102C021963B
:1002A000ECCFC701DF91CF911F910F91FF90EF909D
:1002B000DF90CF900895FC01918D828D981761F0A9
:1002C000828DDF01A80FB11D5D968C91928D9F5F8D
:1002D0009F73928F90E008958FEF9FEF0895FC0138
:1002E000918D828D981731F0828DE80FF11D858DEB
:1002F00090E008958FEF9FEF0895FC01918D228D7E
:10030000892F90E0805C9F4F821B91098F73992702
:10031000089587E391E00E947D0121E0892B09F493
:1003200020E0822F0895FC01848DDF01A80FB11D0C
:10033000A35ABF4F2C91848D90E001968F7399271B
:10034000848FA689B7892C93A089B1898C91806408
:100350008C93938D848D981306C00288F389E02DC9
:1003600080818F7D80830895EF92FF920F931F937A
:10037000CF93DF93EC0181E0888F9B8D8C8D981358
:1003800005C0E889F989808185FD24C0F62E0B8D92
:1003900010E00F5F1F4F0F731127E02E8C8DE812B6
:1003A0000CC00FB607FCFACFE889F989808185FF78
:1003B000F5CFCE010E949301F1CF8B8DFE01E80FA6
:1003C000F11DE35AFF4FF0820B8FEA89FB89808190
:1003D000806207C0EE89FF896083E889F98980819E
:1003E0008064808381E090E0DF91CF911F910F9135
:1003F000FF90EF900895CF93DF93EC01888D8823D1
:10040000C9F0EA89FB89808185FD05C0A889B98981
:100410008C9186FD0FC00FB607FCF5CF808185FF5C
:10042000F2CFA889B9898C9185FFEDCFCE010E94CA
:100430009301E7CFDF91CF91089580E090E0892B81
:1004400029F00E94890181110C9400000895009701
:1004500069F0FC0101900020E9F73197AF01481BDA
:10046000590BBC0187E391E00C94300180E090E0EF
:1004700008958F929F92AF92BF920F931F93CF9345
:10048000DF93CDB7DEB7A1970FB6F894DEBF0FBEEE
:10049000CDBF19A2423008F44AE08E010F5D1F4F14
:1004A000842E912CA12CB12CA50194010E9402054F
:1004B000E62FB901CA0101501109EA3014F4E05DD8
:1004C00001C0E95CD801EC93232B242B252B61F789
:1004D000C8010E942702A1960FB6F894DEBF0FBE96
:1004E000CDBFDF91CF911F910F91BF90AF909F90A3
:1004F0008F900895CF92DF92EF92FF92CF93DF9388
:100500006B017C01E0913701F09138010190F0819D
:10051000E02D6DE287E391E00995EC0166277727EE
:10052000CB016C197D098E099F094AE00E943902AE
:100530008C0F9D1FDF91CF91FF90EF90DF90CF90B8
:1005400008950E94DE041F920F920FB60F9211249D
:100550002F933F938F939F93AF93BF9380912F01DE
:1005600090913001A0913101B091320130912E0172
:1005700023E0230F2D3720F40196A11DB11D05C0E6
:1005800026E8230F0296A11DB11D20932E01809312
:100590002F0190933001A0933101B09332018091EB
:1005A000330190913401A0913501B091360101964B
:1005B000A11DB11D8093330190933401A0933501A7
:1005C000B0933601BF91AF919F918F913F912F9141
:1005D0000F900FBE0F901F9018951F920F920FB69D
:1005E0000F9211242F933F934F935F936F937F93B9
:1005F0008F939F93AF93BF93EF93FF9387E391E024
:100600000E949301FF91EF91BF91AF919F918F91C4
:100610007F916F915F914F913F912F910F900FBEFE
:100620000F901F9018951F920F920FB60F921124E2
:100630002F938F939F93EF93FF93E0914701F09156
:1006400048018081E0914D01F0914E0182FD12C080
:100650009081809150018F5F8F732091510182179B
:1006600051F0E0915001F0E0E95CFE4F958F8093EE
:10067000500101C08081FF91EF919F918F912F9147
:100680000F900FBE0F901F901895789484B58260DC
:1006900084BD84B5816084BD85B5826085BD85B526
:1006A000816085BD80916E00816080936E001092A4
:1006B000810080918100826080938100809181001F
:1006C00081608093810080918000816080938000B0
:1006D0008091B10084608093B1008091B00081600E
:1006E0008093B00080917A00846080937A0080913A
:1006F0007A00826080937A0080917A008160809392
:100700007A0080917A00806880937A001092C1000C
:10071000E0914701F091480182E08083E09143013C
:10072000F09144011082E0914501F09146018FEC77
:10073000808310924F01E0914B01F0914C0186E0D3
:100740008083E0914901F0914A018081806180833A
:10075000E0914901F0914A01808188608083E091B5
:100760004901F0914A01808180688083E0914901CC
:10077000F0914A0180818F7D808360E08EE00E944D
:10078000CF0061E08BE00E94CF0088248A9493E040
:10079000992EA12CB12C2FEA222E20E0322E20E41B
:1007A00020937C0080917A00806480937A0080910D
:1007B0007A0086FDFCCFC091780080917900D0E06E
:1007C000D82B6E010D2E000CEE08FF089E01A1E053
:1007D000BFEF0E94C904A50194010E94E30429010E
:1007E0003A018FEF480E511C611C711C820161E0BF
:1007F0008BE00E94CF00411451046104710411F494
:1008000080E007C0EFEF4E1651046104710421F43B
:1008100081E00E94870042C0F10184918330F9F0A9
:1008200048F48130B9F08230A1F584B5806284BD8E
:1008300048BC34C08730E9F0883019F1843049F57C
:100840008091800080628093800050928B00409263
:100850008A0024C084B5806884BD47BC1FC08091D5
:1008600080008068809380005092890040928800C8
:1008700015C08091B00080688093B0004092B300B2
:100880000DC08091B00080628093B0004092B400AF
:1008900005C0003811050CF0BBCFB2CF84E191E068
:1008A0000E942702D7FF05C0C701B6010E947A0245
:1008B00005C04AE0C701B6010E9439028BE191E010
:1008C0000E94270277FE05C0C301B2010E947A028E
:1008D00005C04AE0C301B2010E9439028BE291E0F7
:1008E0000E9427020E940B012B013C018CE2C82EC2
:1008F000DD24D394E12CF12C0E940B01DC01CB010F
:1009000084199509A609B709883E9340A105B10548
:1009100058F0F1E0CF1AD108E108F10828EE420EB4
:1009200023E0521E611C711CC114D104E104F104C6
:1009300019F70E941D0233CFE7E3F1E01382128220
:1009400088EE93E0A0E0B0E084839583A683B7832C
:1009500088E091E09183808385EC90E0958784879F
:1009600084EC90E09787868780EC90E0918B808B79
:1009700081EC90E0938B828B82EC90E0958B848B62
:1009800086EC90E0978B868B118E128E138E148ED0
:1009900008950E942405332312F48A1B9B0B0C94A8
:1009A000D3040E942405B7FF0895821B930B08957A
:1009B000EE0FFF1F0590F491E02D099481E090E087
:1009C000F8940C943305052E97FB1EF400940E94B6
:1009D000FA0457FD07D00E94020507FC03D04EF42D
:1009E0000C94FA0450954095309521953F4F4F4F08
:1009F0005F4F089590958095709561957F4F8F4FCB
:100A00009F4F0895A1E21A2EAA1BBB1BFD010DC02A
:100A1000AA1FBB1FEE1FFF1FA217B307E407F507AE
:100A200020F0A21BB30BE40BF50B661F771F881F8A
:100A3000991F1A9469F760957095809590959B0120
:100A4000AC01BD01CF010895A29FB001B39FC001C9
:100A5000A39F700D811D1124911DB29F700D811DEA
:0A0A60001124911D0895F894FFCFB2
:100A6A000100000000000000B40130017D015B01BB
:100A7A006F01FB016C696768743A002C206C65642D
:0E0A8A0020737472656E6774683A000D0A007E
:00000001FF
