:100000000C9463000C9475000C9475000C947500AE
:100010000C9475000C9475000C9475000C9475008C
:100020000C9475000C9475000C9475000C9475007C
:100030000C9475000C9475000C9475000C9475006C
:100040000C947B010C9475000C9475000C94750055
:100050000C9475000C9475000C9475000C9475004C
:100060000C9475000C94750029022E0233023A029A
:100070003F0246024D02000000080002010000039A
:100080000407000000000000000000000000250040
:1000900028002B0000000000240027002A00040490
:1000A0000404040404040202020202020303030320
:1000B00003030102040810204080010204081020FC
:1000C00001020408102011241FBECFEFD8E0DEBFCC
:1000D000CDBF21E0A0E0B1E001C01D92AB30B2077E
:1000E000E1F70E94C5010C94B0020C94000090E06E
:1000F000FC01EE54FF4F2491FC01E256FF4F849126
:10010000882399F090E0880F991FFC01EC56FF4F6F
:10011000A591B491FC01E657FF4F859194918FB75B
:10012000F894EC91E22BEC938FBF089590E0FC01E2
:10013000EA58FF4F3491FC01EE54FF4F2491FC012B
:10014000E256FF4FE491EE2309F43BC0332339F12B
:10015000333091F038F43130A9F0323001F584B504
:100160008F7D12C0373091F03830A1F03430B9F4BF
:10017000809180008F7D03C0809180008F77809375
:1001800080000DC084B58F7784BD09C08091B00018
:100190008F7703C08091B0008F7D8093B000F0E036
:1001A000EE0FFF1FE657FF4FA591B4918FB7F8945C
:1001B000EC91611103C020952E2301C02E2B2C93AE
:1001C0008FBF08951F93CF93DF93182FEB010E94E9
:1001D0007700209711F460E004C0CF3FD10539F4D7
:1001E00061E0812FDF91CF911F910C949600E12F58
:1001F000F0E0EA58FF4FE491E330F9F048F4E130E1
:10020000B9F0E230A1F584B5806284BDC8BD34C0C8
:10021000E730E9F0E83019F1E43049F580918000E9
:10022000806280938000D0938B00C0938A0024C0AA
:1002300084B5806884BDC7BD1FC080918000806880
:1002400080938000D0938900C093880015C080916E
:10025000B00080688093B000C093B3000DC080915F
:10026000B00080628093B000C093B40005C0C03875
:10027000D1050CF0B5CFAFCFDF91CF911F9108958D
:100280003FB7F8948091070190910801A09109016E
:10029000B0910A0126B5A89B05C02F3F19F0019621
:1002A000A11DB11D3FBFBA2FA92F982F8827820FFC
:1002B000911DA11DB11DBC01CD0142E0660F771F4C
:1002C000881F991F4A95D1F708950F931F93CF93D5
:1002D000DF938B01EA01BC0189E00E94E200B801D2
:1002E0008AE00E94E200BE018BE0DF91CF911F9176
:1002F0000F910C94E2001F920F920FB60F921124EF
:100300002F933F938F939F93AF93BF93809103015C
:1003100090910401A0910501B09106013091020174
:1003200023E0230F2D3720F40196A11DB11D05C038
:1003300026E8230F0296A11DB11D20930201809390
:10034000030190930401A0930501B09306018091ED
:10035000070190910801A0910901B0910A0101964D
:10036000A11DB11D8093070190930801A09309017D
:10037000B0930A01BF91AF919F918F913F912F91BF
:100380000F900FBE0F901F901895789484B58260DF
:1003900084BD84B5816084BD85B5826085BD85B529
:1003A000816085BD80916E00816080936E001092A7
:1003B0008100809181008260809381008091810022
:1003C00081608093810080918000816080938000B3
:1003D0008091B10084608093B1008091B000816011
:1003E0008093B00080917A00846080937A0080913D
:1003F0007A00826080937A0080917A008160809395
:100400007A0080917A00806880937A001092C1000F
:1004100089E00E9477008AE00E9477008BE00E94CA
:100420007700C7E0D0E000E010E0809100019091FB
:10043000010101969093010180930001BE010E9489
:1004400082028730910588F5FC01EC5CFF4F0C942B
:10045000960240E050E060E070E009C040E050E00B
:100460006EE570E004C040E050E06BEB70E08FEFB1
:1004700090E019C040E050E06FEF70E004C04FEF33
:1004800050E060E070E080E090E00DC049E950E0AD
:1004900060E070E085E090E006C04FEF50E060E083
:1004A00070E08FE590E00E9465010E9440014B01E1
:1004B0005C0184E6C82ED12CE12CF12C0E94400175
:1004C000DC01CB0188199909AA09BB09883E934030
:1004D000A105B10558F021E0C21AD108E108F108E0
:1004E00088EE880E83E0981EA11CB11CC114D104B3
:1004F000E104F10419F70115110509F496CF0E94E2
:10050000000093CF97FB072E16F4009407D077FDD9
:1005100009D00E949C0207FC05D03EF4909581957D
:100520009F4F0895709561957F4F0895EE0FFF1FBF
:100530000590F491E02D0994AA1BBB1B51E107C063
:10054000AA1FBB1FA617B70710F0A61BB70B881F63
:10055000991F5A95A9F780959095BC01CD010895F2
:04056000F894FFCF3D
:00000001FF
