:100000000C945D000C9485000C9485000C94850084
:100010000C9485000C9485000C9485000C9485004C
:100020000C9485000C9485000C9485000C9485003C
:100030000C9485000C9485000C9485000C9485002C
:100040000C9459020C9485000C94C9020C94A302E0
:100050000C9485000C9485000C9485000C9485000C
:100060000C9485000C9485000000000024002700FB
:100070002A0000000000250028002B0004040404CE
:100080000404040402020202020203030303030342
:10009000010204081020408001020408102001021F
:1000A00004081020000000080002010000030407FB
:1000B00000000000000000000D0411241FBECFEF5F
:1000C000D8E0DEBFCDBF11E0A0E0B1E0E2EDF8E0A6
:1000D00002C005900D92A431B107D9F721E0A4E147
:1000E000B1E001C01D92AA3BB207E1F710E0CDE5F7
:1000F000D0E004C02197FE010E945C04CC35D107FA
:10010000C9F70E94FB020C9467040C94000090E075
:10011000FC01EC55FF4F3491FC01E057FF4F249157
:10012000FC01E458FF4FE491EE2309F43BC0332374
:1001300039F1333091F038F43130A9F0323001F533
:1001400084B58F7D12C0373091F03830A1F0343053
:10015000B9F4809180008F7D03C0809180008F77FB
:10016000809380000DC084B58F7784BD09C08091D5
:10017000B0008F7703C08091B0008F7D8093B00076
:10018000F0E0EE0FFF1FEE58FF4FA591B4918FB72F
:10019000F894EC91611103C020952E2301C02E2B01
:1001A0002C938FBF0895CF93DF9390E0FC01E0572D
:1001B000FF4F2491FC01E458FF4F8491882361F1A3
:1001C00090E0880F991FFC01E859FF4FC591D49129
:1001D000FC01EE58FF4FA591B491611109C09FB782
:1001E000F8948881209582238883EC912E230BC07C
:1001F000623061F49FB7F8943881822F8095832311
:100200008883EC912E2B2C939FBF06C08FB7F89458
:10021000E8812E2B28838FBFDF91CF910895CF9255
:10022000DF92EF92FF920F931F93CF93DF936C01B6
:100230007A018B01C0E0D0E0CE15DF0589F0D8014E
:100240006D918D01D601ED91FC910190F081E02D31
:10025000C6010995892B11F47E0102C02196ECCFCD
:10026000C701DF91CF911F910F91FF90EF90DF9029
:10027000CF900895FC01918D828D981761F0828D49
:10028000DF01A80FB11D5D968C91928D9F5F9F73CA
:10029000928F90E008958FEF9FEF0895FC01918D6C
:1002A000828D981731F0828DE80FF11D858D90E0D9
:1002B00008958FEF9FEF0895FC01918D228D892F76
:1002C00090E0805C9F4F821B91098F73992708955E
:1002D0008DE191E00E945C0121E0892B09F420E08E
:1002E000822F0895FC01848DDF01A80FB11DA35A50
:1002F000BF4F2C91848D90E001968F739927848F46
:10030000A689B7892C93A089B1898C9180648C933C
:10031000938D848D981306C00288F389E02D808127
:100320008F7D80830895EF92FF920F931F93CF9359
:10033000DF93EC0181E0888F9B8D8C8D981305C035
:10034000E889F989808185FD24C0F62E0B8D10E0A7
:100350000F5F1F4F0F731127E02E8C8DE8120CC01A
:100360000FB607FCFACFE889F989808185FFF5CFC0
:10037000CE010E947201F1CF8B8DFE01E80FF11DBD
:10038000E35AFF4FF0820B8FEA89FB8980818062FC
:1003900007C0EE89FF896083E889F98980818064DC
:1003A000808381E090E0DF91CF911F910F91FF90CA
:1003B000EF900895CF93DF93EC01888D8823C9F0E7
:1003C000EA89FB89808185FD05C0A889B9898C915E
:1003D00086FD0FC00FB607FCF5CF808185FFF2CFF9
:1003E000A889B9898C9185FFEDCFCE010E94720159
:1003F000E7CFDF91CF91089580E090E0892B29F03D
:100400000E94680181110C94000008958F929F92C0
:10041000AF92BF920F931F93CF93DF93CDB7DEB709
:10042000A1970FB6F894DEBF0FBECDBF19A2423020
:1004300008F44AE08E010F5D1F4F842E912CA12CF1
:10044000B12CA50194010E943A04E62FB901CA011A
:1004500001501109EA3014F4E05D01C0E95CD801F3
:10046000EC93232B242B252B61F70115110571F03B
:10047000F80101900020E9F73197AF01401B510BC3
:10048000B8018DE191E00E940F0102C080E090E090
:10049000A1960FB6F894DEBF0FBECDBFDF91CF910E
:1004A0001F910F91BF90AF909F908F9008950E94E1
:1004B00062041F920F920FB60F9211242F933F9355
:1004C0008F939F93AF93BF938091190190911A01DD
:1004D000A0911B01B0911C013091180123E0230F62
:1004E0002D3720F40196A11DB11D05C026E8230F6C
:1004F0000296A11DB11D20931801809319019093BC
:100500001A01A0931B01B0931C01809114019091DA
:100510001501A0911601B09117010196A11DB11D01
:100520008093140190931501A0931601B0931701C5
:10053000BF91AF919F918F913F912F910F900FBEDF
:100540000F901F9018951F920F920FB60F921124C3
:100550002F933F934F935F936F937F938F939F93CB
:10056000AF93BF93EF93FF938DE191E00E947201EF
:10057000FF91EF91BF91AF919F918F917F916F917B
:100580005F914F913F912F910F900FBE0F901F9051
:1005900018951F920F920FB60F9211242F938F93DD
:1005A0009F93EF93FF93E0912D01F0912E018081B5
:1005B000E0913301F091340182FD12C0908180916D
:1005C00036018F5F8F7320913701821751F0E091D0
:1005D0003601F0E0E35EFE4F958F8093360101C057
:1005E0008081FF91EF919F918F912F910F900FBE7E
:1005F0000F901F901895789484B5826084BD84B55F
:10060000816084BD85B5826085BD85B5816085BD0D
:1006100080916E00816080936E00109281008091C5
:10062000810082608093810080918100816080934D
:100630008100809180008160809380008091B10072
:1006400084608093B1008091B00081608093B0009D
:1006500080917A00846080937A0080917A00826031
:1006600080937A0080917A00816080937A008091F3
:100670007A00806880937A001092C10060E08EE07A
:100680000E94D30061E089E00E94D300E0912D0137
:10069000F0912E0182E08083E0912901F0912A01FE
:1006A0001082E0912B01F0912C018FEC808310924D
:1006B0003501E0913101F091320186E08083E091D3
:1006C0002F01F0913001808180618083E0912F01C2
:1006D000F0913001808188608083E0912F01F0915A
:1006E0003001808180688083E0912F01F09130019A
:1006F00080818F7D808380E4B82E0DEA10E0B09277
:100700007C0080917A00806480937A0080917A00E6
:1007100086FDFCCFC091780080917900D0E0D82B85
:100720006E010D2E000CEE08FF08D7FF14C0E091FB
:100730001D01F0911E010190F081E02D6DE28DE12F
:1007400091E0099566277727CB016C197D098E0901
:100750009F094AE003C04AE0C701B6010E940602B1
:1007600042E050E060E171E08DE191E00E940F0114
:1007700061E089E00E94D300209711F460E004C09A
:10078000CF3FD10529F461E089E00E94870042C093
:10079000F80184918330F9F048F48130B9F0823067
:1007A000A1F584B5806284BDC8BD34C08730E9F04E
:1007B000883019F1843049F58091800080628093FF
:1007C0008000D0938B00C0938A0024C084B58068D9
:1007D00084BDC7BD1FC08091800080688093800069
:1007E000D0938900C093880015C08091B0008068C4
:1007F0008093B000C093B3000DC08091B0008062C0
:100800008093B000C093B40005C0C038D1050CF08F
:10081000BACFB4CF0E94FC0172CFEDE1F1E01382B8
:10082000128288EE93E0A0E0B0E084839583A683F3
:10083000B78384E091E09183808385EC90E0958795
:10084000848784EC90E09787868780EC90E0918B9A
:10085000808B81EC90E0938B828B82EC90E0958B87
:10086000848B86EC90E0978B868B118E128E138E84
:10087000148E0895A1E21A2EAA1BBB1BFD010DC008
:10088000AA1FBB1FEE1FFF1FA217B307E407F50740
:1008900020F0A21BB30BE40BF50B661F771F881F1C
:1008A000991F1A9469F760957095809590959B01B2
:1008B000AC01BD01CF010895EE0FFF1F0590F4912B
:1008C000E02D099481E090E0F8940C946704F8948A
:0208D000FFCF58
:1008D2000000000093010F015C013A014E01DA01B0
:0408E2000D0A0000FB
:00000001FF
