:100000000C945D000C947A000C947A000C947A00A5
:100010000C947A000C947A000C947A000C945A0197
:100020000C947A000C947A000C947A000C947A0068
:100030000C947A000C947A000C947A000C947A0058
:100040000C9410010C947A000C947A000C947A00B1
:100050000C947A000C947A000C947A000C947A0038
:100060000C947A000C947A00000000080002010051
:100070000003040700000000000000000200000070
:1000800000250028002B0000000000240027002A83
:100090000004040404040404040202020202020331
:1000A000030303030301020408102040800102043B
:1000B0000810200102040810200011241FBECFEFF9
:1000C000D8E0DEBFCDBF11E0A0E0B1E0E4EDFCE0A0
:1000D00002C005900D92A236B107D9F721E0A2E641
:1000E000B1E001C01D92A038B207E1F70E94B6014D
:1000F0000C9468060C9400003FB7F89480917C0142
:1001000090917D01A0917E01B0917F0126B5A89BC1
:1001100005C02F3F19F00196A11DB11D3FBFBA2F99
:10012000A92F982F8827820F911DA11DB11DBC01F9
:10013000CD0142E0660F771F881F991F4A95D1F7BE
:10014000089590910001981324C0ECE7F0E0E49149
:100150009FEF90930001E130B9F098F0E230C9F4DC
:10016000909170009D7F9093700091E09093B0000B
:100170009091B100987F94609093B1001092B30079
:1001800008C010926E0005C090916F009D7F909303
:100190006F0090E0FC01E859FF4F2491FC01EB5502
:1001A000FF4F3491FC01EF56FF4FE491EE23B9F17C
:1001B000222339F1233091F038F42130A9F0223094
:1001C00001F584B58F7D12C0273091F02830A1F061
:1001D0002430B9F4809180008F7D03C0809180002D
:1001E0008F77809380000DC084B58F7784BD09C060
:1001F0008091B0008F7703C08091B0008F7D809395
:10020000B000F0E0EE0FFF1FE358FF4FA591B4914F
:100210008FB7F894EC9130953E233C938FBF0895AF
:100220001F920F920FB60F9211242F933F938F932B
:100230009F93AF93BF938091780190917901A091A2
:100240007A01B0917B013091770123E0230F2D37A4
:1002500020F40196A11DB11D05C026E8230F0296CA
:10026000A11DB11D209377018093780190937901AE
:10027000A0937A01B0937B0180917C0190917D01E4
:10028000A0917E01B0917F010196A11DB11D8093C7
:100290007C0190937D01A0937E01B0937F01BF917B
:1002A000AF919F918F913F912F910F900FBE0F9023
:1002B0001F9018951F920F920FB60F9211242F9333
:1002C0003F934F935F936F937F938F939F93AF93DE
:1002D000BF93EF93FF9380916B0190916C01A0917C
:1002E0006D01B0916E01892B8A2B8B2B51F180917E
:1002F0006201E0916301F09164019081892780831C
:1003000080916B0190916C01A0916D01B0916E0193
:10031000181619061A061B06C4F480916B019091F9
:100320006C01A0916D01B0916E010197A109B10915
:1003300080936B0190936C01A0936D01B0936E015B
:1003400004C0809100010E94A100FF91EF91BF9134
:10035000AF919F918F917F916F915F914F913F915D
:100360002F910F900FBE0F901F901895CF93DF9392
:10037000CDB7DEB729970FB6F894DEBF0FBECDBF5D
:10038000789484B5826084BD84B5816084BD85B570
:10039000826085BD85B5816085BD80916E0081607C
:1003A00080936E0010928100809181008260809322
:1003B0008100809181008160809381008091800024
:1003C0008160809380008091B10084608093B1004F
:1003D0008091B00081608093B00080917A00846049
:1003E00080937A0080917A00826080937A00809175
:1003F0007A00816080937A0080917A00806880938F
:100400007A001092C10021E331E03A83298341E070
:1004100051E058874F83A981BA816D917D91BA834C
:10042000A98388EE93E00E94B8048B01EF81F885E0
:1004300021903190F887EF83809100019B01770F25
:10044000440B550B2B833C834D835E838C3029F406
:10045000ECE7F0E0F491F9877BC08F3F09F0E1C150
:100460008CE080930001ECE7F0E084918F3F09F489
:10047000D8C1813019F1823009F444C0811167C0BC
:1004800014BC15BC84B5826084BD85B5816085BD12
:10049000EDE9F0E08491E82FF0E0EE0FFF1FE35864
:1004A000FF4F8591949190936A0180936901E1EBEC
:1004B000F0E084918093680119864DC0109280000D
:1004C00010928100809181008860809381008091EA
:1004D0008100816080938100EDE9F0E08491E82F54
:1004E000F0E0EE0FFF1FE358FF4F8591949190933A
:1004F000670180936601E1EBF0E0849180936501F0
:10050000F1E023C01092B0001092B1008091B000D1
:1005100082608093B0008091B10081608093B100CF
:10052000EDE9F0E08491E82FF0E0EE0FFF1FE358D3
:10053000FF4F859194919093640180936301E1EB67
:10054000F0E0849180936201F2E0F98704C089872A
:10055000298527FD66C1E1EBF0E04491EDE9F0E08B
:100560008491882399F090E0880F991FFC01E95746
:10057000FF4FA591B491FC01E358FF4F25913491B1
:100580008FB7F8949C91492B4C938FBF4101A12CBC
:10059000B12C89858D7F09F0B9C060E072E18AE7EE
:1005A00090E0A50194010E94EE0429013A0169013D
:1005B0007A01F1E0CF1AD108E108F1082FEFC21655
:1005C000D104E104F10409F008F44DC060E472E4E0
:1005D0008FE090E0A50194010E94EE0469017A0188
:1005E00081E0C81AD108E108F1089985923001F537
:1005F000AFEFCA16D104E104F10409F008F4B6C162
:1006000060E970ED83E090E0A50194010E94EE04A2
:1006100069017A01B1E0CB1AD108E108F108EFEFE6
:10062000CE16D104E104F10409F0D0F583E067C0EF
:10063000FFEFCF16D104E104F104B9F0B0F068E4A3
:1006400078EE81E090E0A50194010E94EE0469013A
:100650007A0181E0C81AD108E108F1089985992347
:1006600009F42BC17AC181E001C082E02985211102
:1006700046C011C0D301C2012AE0B595A795979550
:1006800087952A95D1F76C017D0141E0C41AD10804
:10069000E108F10885E095B5987F892B85BD72C08A
:1006A00068E478EE81E090E0A50194010E94EE04F8
:1006B00069017A0181E0C81AD108E108F1089FEFC9
:1006C000C916D104E104F10409F008F4F4C064E2AD
:1006D00074EF80E090E0A50194010E94EE046901AE
:1006E0007A01A1E0CA1AD108E108F108BFEFCB16E0
:1006F000D104E104F10411F008F001C185E090910A
:10070000B100987F892B8093B1003CC060E072E11A
:100710008AE790E0A50194010E94EE0469017A0144
:1007200081E0C81AD108E108F108C114D10491E0B0
:10073000E906F10488F068E478EE81E090E0A50134
:1007400094010E94EE0469017A01A1E0CA1AD1085D
:10075000E108F10893E001C091E0B985B13091F46E
:1007600080918100887F892B809381002B813C813F
:100770004D815E81232B242B252B61F42FEF3FEF3E
:10078000A9012EC08B819C81AD81BE81892B8A2BD2
:100790008B2B69F09101220F331FD8010E940D05A8
:1007A00028EE33E040E050E00E94CC0403C02FEF7D
:1007B0003FEFA9019985913099F0923019F191118B
:1007C00030C0C7BC2093730130937401409375010E
:1007D0005093760180916E00826080936E0021C0FC
:1007E000D0928900C092880020936F0130937001ED
:1007F000409371015093720180916F0082608093E9
:100800006F000FC0C092B30020936B0130936C0156
:1008100040936D0150936E018091700082608093CF
:1008200070006B817C818D819E810E946F0526E620
:1008300036E646EA5FE30E94D3050E9437056B0166
:10084000770FEE08FF080E947C004B015C01C11489
:10085000D104E104F104F1F00E947C00DC01CB0141
:1008600088199909AA09BB09883E9340A105B105D9
:1008700070F3A1E0CA1AD108E108F108B8EE8B0EB6
:10088000B3E09B1EA11CB11CC114D104E104F1040E
:1008900019F7DDCF8CE00E94A10029813A81215611
:1008A000314009F0B8CD00E010E001151105E9F381
:1008B0000E940000FACF84E022CFEFEFCE16D104E1
:1008C000E104F104D1F0C8F062E17AE780E090E061
:1008D000A50194010E94EE0469017A01A1E0CA1AFF
:1008E000D108E108F108BFEFCB16D104E104F1040F
:1008F00011F008F0BFCE84E0CECE83E0CCCE62E132
:100900007AE780E090E0A50194010E94EE0469017D
:100910007A01F1E0CF1AD108E108F1082FEFC216F1
:10092000D104E104F104B9F0B0F0D301C2015AE0FE
:10093000B595A795979587955A95D1F76C017D0147
:10094000E1E0CE1AD108E108F108F985FF2309F4A6
:10095000A1CE87E0D4CE86E089CE3FEFC316D10486
:10096000E104F10409F058F684E080CE82E0C7CEBD
:1009700097FB072E16F4009407D077FD09D00E944C
:10098000140507FC05D03EF4909581959F4F08957E
:10099000709561957F4F0895A1E21A2EAA1BBB1B8B
:1009A000FD010DC0AA1FBB1FEE1FFF1FA217B3073B
:1009B000E407F50720F0A21BB30BE40BF50B661F51
:1009C000771F881F991F1A9469F760957095809515
:1009D00090959B01AC01BD01CF010895052E97FBB9
:1009E0001EF400940E94050557FD07D00E94CC0418
:1009F00007FC03D04EF40C940505509540953095B6
:100A000021953F4F4F4F5F4F08959095809570957A
:100A100061957F4F8F4F9F4F08950E942805B7FF24
:100A20000895821B930B0895AA1BBB1B51E107C0BD
:100A3000AA1FBB1FA617B70710F0A61BB70B881F6E
:100A4000991F5A95A9F780959095BC01CD010895FD
:100A5000A29FB001B39FC001A39F700D811D1124FF
:100A6000911DB29F700D811D1124911D08950E944A
:100A70003E056894B1110C94CD0508950E94B2050D
:100A800088F09F5798F0B92F9927B751B0F0E1F04F
:100A9000660F771F881F991F1AF0BA95C9F714C0FF
:100AA000B13091F00E94CC05B1E008950C94CC05D2
:100AB000672F782F8827B85F39F0B93FCCF3869538
:100AC00077956795B395D9F73EF490958095709595
:100AD00061957F4F8F4F9F4F0895E89409C097FB12
:100AE0003EF490958095709561957F4F8F4F9F4F05
:100AF0009923A9F0F92F96E9BB279395F695879549
:100B000077956795B795F111F8CFFAF4BB0F11F40B
:100B100060FF1BC06F5F7F4F8F4F9F4F16C08823B2
:100B200011F096E911C0772321F09EE8872F762FE8
:100B300005C0662371F096E8862F70E060E02AF029
:100B40009A95660F771F881FDAF7880F9695879515
:100B500097F9089557FD9058440F551F59F05F3F7E
:100B600071F04795880F97FB991F61F09F3F79F0CF
:100B700087950895121613061406551FF2CF469551
:100B8000F1DF08C0161617061806991FF1CF8695D3
:100B90007105610508940895E894BB2766277727B7
:100BA000CB0197F908950E94E6050C9457060E9420
:100BB000490638F00E94500620F0952311F00C945D
:100BC00040060C94460611240C94CD050E94AA05FB
:100BD00070F3959FC1F3950F50E0551F629FF00190
:100BE000729FBB27F00DB11D639FAA27F00DB11DA9
:100BF000AA1F649F6627B00DA11D661F829F222732
:100C0000B00DA11D621F739FB00DA11D621F839FB8
:100C1000A00D611D221F749F3327A00D611D231F8E
:100C2000849F600D211D822F762F6A2F11249F57DC
:100C300050409AF0F1F088234AF0EE0FFF1FBB1FDF
:100C4000661F771F881F91505040A9F79E3F51059E
:100C500080F00C9440060C94CD055F3FE4F3983E81
:100C6000D4F3869577956795B795F795E7959F5F48
:100C7000C1F7FE2B880F911D9695879597F90895DA
:100C800097F99F6780E870E060E008959FEF80EC3F
:100C9000089500240A9416161706180609060895E2
:100CA00000240A9412161306140605060895092E48
:100CB0000394000C11F4882352F0BB0F40F4BF2BB7
:100CC00011F460FF04C06F5F7F4F8F4F9F4F0895F7
:040CD000F894FFCFC6
:100CD400FF400C400CC00DC00D400C400C4D0A40B0
:100CE4000C400C4D0A4D0A2D09400C400CC00DC09F
:100CF4000D400C400C4D0A400C4D0A2D094D0A2D97
:100D040008040004000400040004000400020004B9
:100D140000040004000400010004000400040004B2
:100D240000040004000200040004000400040001A4
:020D34000000BD
:00000001FF
