:100000000C945D000C9485000C9485000C94850084
:100010000C9485000C9485000C9485000C9485004C
:100020000C9485000C9485000C9485000C94DF03DF
:100030000C9485000C9485000C9485000C9485002C
:100040000C943D030C9485000C94AD030C94870331
:100050000C9485000C9485000C9485000C9485000C
:100060000C9485000C9485000000000024002700FB
:100070002A0000000000250028002B0004040404CE
:100080000404040402020202020203030303030342
:10009000010204081020408001020408102001021F
:1000A00004081020000000080002010000030407FB
:1000B0000000000000000000A00411241FBECFEFCC
:1000C000D8E0DEBFCDBF21E0A8E1B1E001C01D92C4
:1000D000AB3EB207E1F711E0A0E0B1E0E6E3FFE0FC
:1000E00002C005900D92A831B107D9F710E0CDE517
:1000F000D0E004C02197FE010E94CF06CC35D10785
:10010000C9F70E94FE040C9499070C940000CF924A
:10011000DF92EF92FF92DC01A03282E0B8070CF090
:100120003EC0B7FD06C0A53BB1052CF0A4EBB0E086
:1001300002C0A0E0B0E08091E90128E830E0690168
:10014000C81AD10887FDD394CC0CDD1CCC0CDD1C67
:100150000D2C000CEE08FF088091EA0128E532E042
:10016000281B310987FD3395220F331F220F331FC0
:10017000A901330F660B770B9A01AB012C193D09CE
:100180004E095F090E94600724EB30E040E050E038
:100190000E943607C20ED31EE41EF51ED6019091B2
:1001A000E8019C3098F58091E90148E850E0481B4F
:1001B000510987FD5395440F551F440F551FA41730
:1001C000B5078CF08091EA0128E532E0281B31095F
:1001D00087FD3395220F331F220F331FAD012A17DE
:1001E0003B070CF4A90142505109440F551F2FB78A
:1001F000F894892F90E0FC01EE0FFF1F8E0F9F1FD8
:10020000FC01ED53FE4F528341832FBFFF90EF90CF
:10021000DF90CF90089590E0FC01EC55FF4F3491B2
:10022000FC01E057FF4F2491FC01E458FF4FE4919B
:10023000EE2309F43BC0332339F1333091F038F425
:100240003130A9F0323001F584B58F7D12C03730DE
:1002500091F03830A1F03430B9F4809180008F7D76
:1002600003C0809180008F77809380000DC084B59B
:100270008F7784BD09C08091B0008F7703C08091D3
:10028000B0008F7D8093B000F0E0EE0FFF1FEE58BE
:10029000FF4FA591B4918FB7F894EC91611103C011
:1002A00020952E2301C02E2B2C938FBF08953FB78E
:1002B000F8948091220190912301A0912401B091A2
:1002C000250126B5A89B05C02F3F19F00196A11D59
:1002D000B11D3FBFBA2FA92F982F8827820F911DDC
:1002E000A11DB11DBC01CD0142E0660F771F881F23
:1002F000991F4A95D1F708958F929F92AF92BF921E
:10030000CF92DF92EF92FF926B017C010E94570126
:100310004B015C01C114D104E104F104F1F00E942D
:100320005701DC01CB0188199909AA09BB09883E4C
:100330009340A105B10570F321E0C21AD108E1088C
:10034000F10888EE880E83E0981EA11CB11CC11430
:10035000D104E104F10419F7DDCFFF90EF90DF90B5
:10036000CF90BF90AF909F908F900895CF92DF92E3
:10037000EF92FF920F931F93CF93DF936C017A015B
:100380008B01C0E0D0E0CE15DF0589F0D8016D917A
:100390008D01D601ED91FC910190F081E02DC60117
:1003A0000995892B11F47E0102C02196ECCFC7017B
:1003B000DF91CF911F910F91FF90EF90DF90CF9041
:1003C0000895FC01918D828D981761F0828DDF0177
:1003D000A80FB11D5D968C91928D9F5F9F73928F38
:1003E00090E008958FEF9FEF0895FC01918D828D2D
:1003F000981731F0828DE80FF11D858D90E00895FA
:100400008FEF9FEF0895FC01918D228D892F90E051
:10041000805C9F4F821B91098F739927089586E214
:1004200091E00E94030221E0892B09F420E0822F51
:100430000895FC01848DDF01A80FB11DA35ABF4FA1
:100440002C91848D90E001968F739927848FA689D3
:10045000B7892C93A089B1898C9180648C93938DFA
:10046000848D981306C00288F389E02D80818F7DEA
:1004700080830895EF92FF920F931F93CF93DF93A2
:10048000EC0181E0888F9B8D8C8D981305C0E889E5
:10049000F989808185FD24C0F62E0B8D10E00F5F59
:1004A0001F4F0F731127E02E8C8DE8120CC00FB672
:1004B00007FCFACFE889F989808185FFF5CFCE0165
:1004C0000E941902F1CF8B8DFE01E80FF11DE35A56
:1004D000FF4FF0820B8FEA89FB898081806207C021
:1004E000EE89FF896083E889F9898081806480834F
:1004F00081E090E0DF91CF911F910F91FF90EF90FD
:100500000895CF93DF93EC01888D8823C9F0EA89A1
:10051000FB89808185FD05C0A889B9898C9186FDFC
:100520000FC00FB607FCF5CF808185FFF2CFA889F9
:10053000B9898C9185FFEDCFCE010E941902E7CFDA
:10054000DF91CF91089580E090E0892B29F00E94FF
:100550000F0281110C94000008958F929F92AF9228
:10056000BF920F931F93CF93DF93CDB7DEB7A197C1
:100570000FB6F894DEBF0FBECDBF19A2423008F40B
:100580004AE08E010F5D1F4F842E912CA12CB12CBF
:10059000A50194010E946807E62FB901CA01015024
:1005A0001109EA3014F4E05D01C0E95CD801EC9374
:1005B000232B242B252B61F70115110571F0F80170
:1005C00001900020E9F73197AF01401B510BB801B2
:1005D00086E291E00E94B60102C080E090E0A19620
:1005E0000FB6F894DEBF0FBECDBFDF91CF911F9144
:1005F0000F91BF90AF909F908F900895CF92DF9210
:10060000EF92FF92CF93DF936C01990FEE08FF08F2
:10061000F7FE1AC0E0912601F09127010190F081C8
:10062000E02D6DE286E291E00995EC0166277727DF
:10063000CB016C197D098E099F094AE00E94AD0229
:100640007C01EC0EFD1E06C04AE0C701B6010E9407
:10065000AD027C0142E050E064E171E086E291E0AD
:100660000E94B6018E0D9F1DDF91CF91FF90EF90FC
:10067000DF90CF9008950E94D5061F920F920FB67B
:100680000F9211242F933F938F939F93AF93BF9318
:1006900080911E0190911F01A0912001B091210134
:1006A00030911D0123E0230F2D3720F40196A11D69
:1006B000B11D05C026E8230F0296A11DB11D209390
:1006C0001D0180931E0190931F01A0932001B09300
:1006D00021018091220190912301A0912401B091E8
:1006E00025010196A11DB11D809322019093230144
:1006F000A0932401B0932501BF91AF919F918F9159
:100700003F912F910F900FBE0F901F9018951F9241
:100710000F920FB60F9211242F933F934F935F9335
:100720006F937F938F939F93AF93BF93EF93FF93B9
:1007300086E291E00E941902FF91EF91BF91AF9183
:100740009F918F917F916F915F914F913F912F91E9
:100750000F900FBE0F901F9018951F920F920FB61B
:100760000F9211242F938F939F93EF93FF93E09118
:100770003601F09137018081E0913C01F0913D011B
:1007800082FD12C0908180913F018F5F8F73209115
:100790004001821751F0E0913F01F0E0EA5DFE4F29
:1007A000958F80933F0101C08081FF91EF919F91D0
:1007B0008F912F910F900FBE0F901F9018951F9241
:1007C0000F920FB60F9211242F933F934F935F9385
:1007D0006F937F938F939F93AF93BF93EF93FF9309
:1007E0008091180187FF05C0109285001092840047
:1007F0001BC020911801022E000C330B8091E701E1
:1008000090E02817390784F480911801082E000C15
:10081000990BFC01EE0FFF1F8E0F9F1FFC01ED5384
:10082000FE4F808186FD15C0809118018F5F8093F7
:10083000180120911801022E000C330B8091E70162
:1008400090E028173907C4F4809118018C3064F1C6
:1008500013C080911801082E000C990BFC01EE0FBB
:10086000FF1F8E0F9F1FFC01ED53FE4F808160E044
:100870008F730E940B01D8CF8091840090918500E6
:10088000049680349C4918F480E49CE905C080916A
:10089000840090918500049690938900809388004D
:1008A0008FEF809318013BC0209184003091850028
:1008B00080911801082E000C990BFC01EE0FFF1F10
:1008C0008E0F9F1FFC01ED53FE4F81819281820F9D
:1008D000931F909389008093880080911801082EBF
:1008E000000C990BFC01EE0FFF1F8E0F9F1FFC01E8
:1008F000ED53FE4F808186FF12C080911801082EB3
:10090000000C990BFC01EE0FFF1F8E0F9F1FFC01C7
:10091000ED53FE4F808161E08F730E940B01FF91C8
:10092000EF91BF91AF919F918F917F916F915F9167
:100930004F913F912F910F900FBE0F901F901895E0
:10094000109229011092280188EE93E0A0E0B0E017
:1009500080932A0190932B01A0932C01B0932D0139
:1009600088E091E0909327018093260185EC90E048
:10097000909333018093320184EC90E090933501A1
:100980008093340180EC90E090933701809336019E
:1009900081EC90E0909339018093380182EC90E0F3
:1009A00090933B0180933A0186EC90E090933D0157
:1009B00080933C0110923F0110924001109241013E
:1009C000109242018091E7018C30A0F491E0980FE1
:1009D0009093E7018093E80190E0FC01EE0FFF1F88
:1009E0008E0F9F1FFC01ED53FE4F88EB9BE092831F
:1009F000818308958FEF8093E8010895789484B5FA
:100A0000826084BD84B5816084BD85B5826085BD0A
:100A100085B5816085BD80916E00816080936E0098
:100A2000109281008091810082608093810080918A
:100A3000810081608093810080918000816080933B
:100A400080008091B10084608093B1008091B000FB
:100A500081608093B00080917A00846080937A00F6
:100A600080917A00826080937A0080917A00816020
:100A700080937A0080917A00806880937A00109247
:100A8000C100EEE9F0E02491EAE8F0E084918823E7
:100A9000C1F090E0880F991FFC01E859FF4FC59104
:100AA000D491FC01EE58FF4FA591B4919FB7F894F3
:100AB0008881E22FE0958E2388838C91E823EC9344
:100AC0009FBF8091E8018C3008F068C0E5E9F0E054
:100AD0002491E1E8F0E08491882399F090E0880F78
:100AE000991FFC01E859FF4FA591B491FC01EE5804
:100AF000FF4F859194918FB7F894EC91E22BEC9392
:100B00008FBF8091E801E82FF0E09F01220F331F93
:100B1000E20FF31FED53FE4F9081907C9560908320
:100B20001092E9011092EA016CE00E9494069CE0A8
:100B3000899FB001112440E050E09A01260F371F31
:100B4000F901EE0FFF1F2E0F3F1FF901ED53FE4F6E
:100B5000908196FD16C04F5F5F4F4C30510569F78D
:100B600081110FC01092800082E08093810010926A
:100B7000850010928400B19A80916F00826080930A
:100B80006F00E091E801F0E0CF01880F991FE80FB6
:100B9000F91FED53FE4F808180648083E091360120
:100BA000F091370182E08083E0913201F0913301CE
:100BB0001082E0913401F09135018FEC8083109226
:100BC0003E01E0913A01F0913B0186E08083E091A3
:100BD0003801F0913901808180618083E091380192
:100BE000F0913901808188608083E0913801F09133
:100BF0003901808180688083E0913801F09139016A
:100C000080818F7D808388248A9483E0982EA12C14
:100C1000B12C9EE1292E312C23E0C22ED12C80E470
:100C200080937C0080917A00806480937A00809128
:100C30007A0086FDFCCFA091780080917900B0E029
:100C4000B82BB0931C01A0931B0124EB30E00E9451
:100C5000B406A50194010E943607C9010E94FE0254
:100C600084EB90E00E94870068EC70E080E090E008
:100C70000E947C010E9428079B0177FF04C0222765
:100C80003327261B370BC901B1010E94A006EC01D6
:100C90000E94FE0210921A0110921901CE01B601B3
:100CA0000E94A0067C012E010D2E000C660877081C
:100CB0000091190110911A01053B110584F4C80136
:100CC0000E948700C301B2010E947C010E0D1F1D0E
:100CD0000D5F1F4F10931A0100931901E9CFC0FD5A
:100CE00020C084EB90E090931A01809319012E01AB
:100CF000DD0F660877080091190110911A0117FDA0
:100D000010C0C8010E948700C301B2010E947C018B
:100D10000E191F090D5F1F4F10931A01009319013F
:100D2000EACF0E94A3027BCF991B79E004C0991FF0
:100D3000961708F0961B881F7A95C9F78095089535
:100D400097FB072E16F4009407D077FD09D00E9478
:100D5000BB0607FC05D03EF4909581959F4F089502
:100D6000709561957F4F08950E948A07B7FF089597
:100D7000821B930B0895AA1BBB1B51E107C0AA1F3E
:100D8000BB1FA617B70710F0A61BB70B881F991F2C
:100D90005A95A9F780959095BC01CD010895EE0F65
:100DA000FF1F0590F491E02D099481E090E0F89404
:100DB0000C9499078F929F92AF92BF92CF92DF923D
:100DC000EF92FF92CF93DF93EC01688179818A8162
:100DD0009B81611571058105910521F464E279ED2E
:100DE0008BE597E02DE133EF41E050E00E943607BC
:100DF00049015A019B01AC01A7EAB1E40E945507E1
:100E00006B017C01ACEEB4EFA50194010E94630775
:100E1000DC01CB018C0D9D1DAE1DBF1DB7FF03C0B6
:100E20000197A109B04888839983AA83BB83BC0139
:100E3000CD019F77DF91CF91FF90EF90DF90CF9022
:100E4000BF90AF909F908F9008950E94DA0608950A
:100E500080E091E00E94DA060895609300017093AB
:100E6000010180930201909303010895052E97FBE1
:100E70001EF400940E944D0757FD07D00E9468079A
:100E800007FC03D04EF40C944D07509540953095D7
:100E900021953F4F4F4F5F4F0895909580957095E6
:100EA00061957F4F8F4F9F4F08950E948A07A59F9E
:100EB000900DB49F900DA49F800D911D1124089555
:100EC000B7FF0C9455070E945507821B930B08959A
:100ED000A1E21A2EAA1BBB1BFD010DC0AA1FBB1F3E
:100EE000EE1FFF1FA217B307E407F50720F0A21BB0
:100EF000B30BE40BF50B661F771F881F991F1A941D
:100F000069F760957095809590959B01AC01BD0146
:100F1000CF010895A29FB001B39FC001A39F700DA0
:100F2000811D1124911DB29F700D811D1124911DF1
:060F30000895F894FFCFC4
:100F360001000000000000003A02B6010302E101D0
:080F4600F50181020D0A000013
:00000001FF
